{
  "_format": "hh-sol-artifact-1",
  "contractName": "RaffleImpl",
  "sourceName": "contracts/RaffleImpl.sol",
  "abi": [
    {
      "inputs": [
        {
          "internalType": "uint256[]",
          "name": "_amounts",
          "type": "uint256[]"
        },
        {
          "internalType": "uint256[]",
          "name": "_sums",
          "type": "uint256[]"
        },
        {
          "internalType": "uint256[20]",
          "name": "_finalGameSums",
          "type": "uint256[20]"
        },
        {
          "internalType": "address",
          "name": "_priceFeed",
          "type": "address"
        },
        {
          "internalType": "address",
          "name": "_ticketNft",
          "type": "address"
        }
      ],
      "stateMutability": "nonpayable",
      "type": "constructor"
    },
    {
      "anonymous": false,
      "inputs": [
        {
          "indexed": true,
          "internalType": "address",
          "name": "owner",
          "type": "address"
        },
        {
          "indexed": true,
          "internalType": "address",
          "name": "approved",
          "type": "address"
        },
        {
          "indexed": true,
          "internalType": "uint256",
          "name": "tokenId",
          "type": "uint256"
        }
      ],
      "name": "Approval",
      "type": "event"
    },
    {
      "anonymous": false,
      "inputs": [
        {
          "indexed": true,
          "internalType": "address",
          "name": "owner",
          "type": "address"
        },
        {
          "indexed": true,
          "internalType": "address",
          "name": "operator",
          "type": "address"
        },
        {
          "indexed": false,
          "internalType": "bool",
          "name": "approved",
          "type": "bool"
        }
      ],
      "name": "ApprovalForAll",
      "type": "event"
    },
    {
      "anonymous": false,
      "inputs": [
        {
          "indexed": true,
          "internalType": "address",
          "name": "previousOwner",
          "type": "address"
        },
        {
          "indexed": true,
          "internalType": "address",
          "name": "newOwner",
          "type": "address"
        }
      ],
      "name": "OwnershipTransferred",
      "type": "event"
    },
    {
      "anonymous": false,
      "inputs": [
        {
          "indexed": true,
          "internalType": "address",
          "name": "from",
          "type": "address"
        },
        {
          "indexed": true,
          "internalType": "address",
          "name": "to",
          "type": "address"
        },
        {
          "indexed": true,
          "internalType": "uint256",
          "name": "tokenId",
          "type": "uint256"
        }
      ],
      "name": "Transfer",
      "type": "event"
    },
    {
      "anonymous": false,
      "inputs": [
        {
          "indexed": true,
          "internalType": "address",
          "name": "player",
          "type": "address"
        },
        {
          "indexed": true,
          "internalType": "uint256",
          "name": "sum",
          "type": "uint256"
        },
        {
          "indexed": true,
          "internalType": "uint256",
          "name": "tokenId",
          "type": "uint256"
        }
      ],
      "name": "WinnerChosen",
      "type": "event"
    },
    {
      "inputs": [
        {
          "internalType": "address",
          "name": "to",
          "type": "address"
        },
        {
          "internalType": "uint256",
          "name": "tokenId",
          "type": "uint256"
        }
      ],
      "name": "approve",
      "outputs": [],
      "stateMutability": "nonpayable",
      "type": "function"
    },
    {
      "inputs": [
        {
          "internalType": "address",
          "name": "owner",
          "type": "address"
        }
      ],
      "name": "balanceOf",
      "outputs": [
        {
          "internalType": "uint256",
          "name": "",
          "type": "uint256"
        }
      ],
      "stateMutability": "view",
      "type": "function"
    },
    {
      "inputs": [],
      "name": "enterRaffle",
      "outputs": [],
      "stateMutability": "payable",
      "type": "function"
    },
    {
      "inputs": [],
      "name": "entranceFee",
      "outputs": [
        {
          "internalType": "uint256",
          "name": "",
          "type": "uint256"
        }
      ],
      "stateMutability": "view",
      "type": "function"
    },
    {
      "inputs": [],
      "name": "finalGame",
      "outputs": [],
      "stateMutability": "nonpayable",
      "type": "function"
    },
    {
      "inputs": [
        {
          "internalType": "uint256",
          "name": "tokenId",
          "type": "uint256"
        }
      ],
      "name": "getApproved",
      "outputs": [
        {
          "internalType": "address",
          "name": "",
          "type": "address"
        }
      ],
      "stateMutability": "view",
      "type": "function"
    },
    {
      "inputs": [],
      "name": "getFinalGameSums",
      "outputs": [
        {
          "internalType": "uint256[20]",
          "name": "",
          "type": "uint256[20]"
        }
      ],
      "stateMutability": "view",
      "type": "function"
    },
    {
      "inputs": [
        {
          "internalType": "address",
          "name": "player",
          "type": "address"
        }
      ],
      "name": "getTicketSums",
      "outputs": [
        {
          "internalType": "uint256[]",
          "name": "",
          "type": "uint256[]"
        }
      ],
      "stateMutability": "view",
      "type": "function"
    },
    {
      "inputs": [],
      "name": "getTicketsLeft",
      "outputs": [
        {
          "internalType": "uint256[]",
          "name": "",
          "type": "uint256[]"
        }
      ],
      "stateMutability": "view",
      "type": "function"
    },
    {
      "inputs": [
        {
          "internalType": "uint256",
          "name": "sum",
          "type": "uint256"
        }
      ],
      "name": "getTicketsLeftBySum",
      "outputs": [
        {
          "internalType": "uint256",
          "name": "",
          "type": "uint256"
        }
      ],
      "stateMutability": "view",
      "type": "function"
    },
    {
      "inputs": [],
      "name": "getTopPlayers",
      "outputs": [
        {
          "internalType": "address[20]",
          "name": "",
          "type": "address[20]"
        }
      ],
      "stateMutability": "view",
      "type": "function"
    },
    {
      "inputs": [
        {
          "internalType": "uint256",
          "name": "sum",
          "type": "uint256"
        }
      ],
      "name": "getWinnersBySum",
      "outputs": [
        {
          "internalType": "address[]",
          "name": "",
          "type": "address[]"
        }
      ],
      "stateMutability": "view",
      "type": "function"
    },
    {
      "inputs": [
        {
          "internalType": "address",
          "name": "owner",
          "type": "address"
        },
        {
          "internalType": "address",
          "name": "operator",
          "type": "address"
        }
      ],
      "name": "isApprovedForAll",
      "outputs": [
        {
          "internalType": "bool",
          "name": "",
          "type": "bool"
        }
      ],
      "stateMutability": "view",
      "type": "function"
    },
    {
      "inputs": [],
      "name": "name",
      "outputs": [
        {
          "internalType": "string",
          "name": "",
          "type": "string"
        }
      ],
      "stateMutability": "view",
      "type": "function"
    },
    {
      "inputs": [],
      "name": "openRaffle",
      "outputs": [],
      "stateMutability": "nonpayable",
      "type": "function"
    },
    {
      "inputs": [],
      "name": "owner",
      "outputs": [
        {
          "internalType": "address",
          "name": "",
          "type": "address"
        }
      ],
      "stateMutability": "view",
      "type": "function"
    },
    {
      "inputs": [
        {
          "internalType": "uint256",
          "name": "tokenId",
          "type": "uint256"
        }
      ],
      "name": "ownerOf",
      "outputs": [
        {
          "internalType": "address",
          "name": "",
          "type": "address"
        }
      ],
      "stateMutability": "view",
      "type": "function"
    },
    {
      "inputs": [
        {
          "internalType": "address",
          "name": "target",
          "type": "address"
        },
        {
          "internalType": "uint256",
          "name": "amountInUsdt",
          "type": "uint256"
        }
      ],
      "name": "pay",
      "outputs": [],
      "stateMutability": "nonpayable",
      "type": "function"
    },
    {
      "inputs": [],
      "name": "renounceOwnership",
      "outputs": [],
      "stateMutability": "nonpayable",
      "type": "function"
    },
    {
      "inputs": [
        {
          "internalType": "address",
          "name": "from",
          "type": "address"
        },
        {
          "internalType": "address",
          "name": "to",
          "type": "address"
        },
        {
          "internalType": "uint256",
          "name": "tokenId",
          "type": "uint256"
        }
      ],
      "name": "safeTransferFrom",
      "outputs": [],
      "stateMutability": "nonpayable",
      "type": "function"
    },
    {
      "inputs": [
        {
          "internalType": "address",
          "name": "from",
          "type": "address"
        },
        {
          "internalType": "address",
          "name": "to",
          "type": "address"
        },
        {
          "internalType": "uint256",
          "name": "tokenId",
          "type": "uint256"
        },
        {
          "internalType": "bytes",
          "name": "data",
          "type": "bytes"
        }
      ],
      "name": "safeTransferFrom",
      "outputs": [],
      "stateMutability": "nonpayable",
      "type": "function"
    },
    {
      "inputs": [
        {
          "internalType": "address",
          "name": "operator",
          "type": "address"
        },
        {
          "internalType": "bool",
          "name": "approved",
          "type": "bool"
        }
      ],
      "name": "setApprovalForAll",
      "outputs": [],
      "stateMutability": "nonpayable",
      "type": "function"
    },
    {
      "inputs": [],
      "name": "stopRaffle",
      "outputs": [],
      "stateMutability": "nonpayable",
      "type": "function"
    },
    {
      "inputs": [
        {
          "internalType": "uint256",
          "name": "",
          "type": "uint256"
        }
      ],
      "name": "sums",
      "outputs": [
        {
          "internalType": "uint256",
          "name": "",
          "type": "uint256"
        }
      ],
      "stateMutability": "view",
      "type": "function"
    },
    {
      "inputs": [
        {
          "internalType": "bytes4",
          "name": "interfaceId",
          "type": "bytes4"
        }
      ],
      "name": "supportsInterface",
      "outputs": [
        {
          "internalType": "bool",
          "name": "",
          "type": "bool"
        }
      ],
      "stateMutability": "view",
      "type": "function"
    },
    {
      "inputs": [],
      "name": "symbol",
      "outputs": [
        {
          "internalType": "string",
          "name": "",
          "type": "string"
        }
      ],
      "stateMutability": "view",
      "type": "function"
    },
    {
      "inputs": [],
      "name": "ticketNft",
      "outputs": [
        {
          "internalType": "contract Ticket",
          "name": "",
          "type": "address"
        }
      ],
      "stateMutability": "view",
      "type": "function"
    },
    {
      "inputs": [],
      "name": "ticketsLeft",
      "outputs": [
        {
          "internalType": "uint256",
          "name": "",
          "type": "uint256"
        }
      ],
      "stateMutability": "view",
      "type": "function"
    },
    {
      "inputs": [
        {
          "internalType": "uint256",
          "name": "tokenId",
          "type": "uint256"
        }
      ],
      "name": "tokenURI",
      "outputs": [
        {
          "internalType": "string",
          "name": "",
          "type": "string"
        }
      ],
      "stateMutability": "view",
      "type": "function"
    },
    {
      "inputs": [
        {
          "internalType": "address",
          "name": "from",
          "type": "address"
        },
        {
          "internalType": "address",
          "name": "to",
          "type": "address"
        },
        {
          "internalType": "uint256",
          "name": "tokenId",
          "type": "uint256"
        }
      ],
      "name": "transferFrom",
      "outputs": [],
      "stateMutability": "nonpayable",
      "type": "function"
    },
    {
      "inputs": [
        {
          "internalType": "address",
          "name": "newOwner",
          "type": "address"
        }
      ],
      "name": "transferOwnership",
      "outputs": [],
      "stateMutability": "nonpayable",
      "type": "function"
    },
    {
      "stateMutability": "payable",
      "type": "receive"
    }
  ],
  "bytecode": "0x6080604052604051806020016040528060008152506007908162000024919062000665565b5066d19c2ff9bf80006009553480156200003d57600080fd5b50604051620050ea380380620050ea833981810160405281019062000063919062000a00565b6040518060200160405280600081525060405180602001604052806000815250816000908162000094919062000665565b508060019081620000a6919062000665565b505050620000c9620000bd6200026760201b60201c565b6200026f60201b60201c565b83518551148015620000dd57506000855114155b6200011f576040517f08c379a0000000000000000000000000000000000000000000000000000000008152600401620001169062000b2a565b60405180910390fd5b81603860006101000a81548173ffffffffffffffffffffffffffffffffffffffff021916908373ffffffffffffffffffffffffffffffffffffffff16021790555083600c90805190602001906200017892919062000335565b5082600d9060146200018c92919062000387565b506000855190508067ffffffffffffffff811115620001b057620001af620003f6565b5b604051908082528060200260200182016040528015620001df5781602001602082028036833780820191505090505b50600b9080519060200190620001f792919062000335565b5085600b90805190602001906200021092919062000335565b50612a88600a8190555081600860006101000a81548173ffffffffffffffffffffffffffffffffffffffff021916908373ffffffffffffffffffffffffffffffffffffffff16021790555050505050505062000b4c565b600033905090565b6000600660009054906101000a900473ffffffffffffffffffffffffffffffffffffffff16905081600660006101000a81548173ffffffffffffffffffffffffffffffffffffffff021916908373ffffffffffffffffffffffffffffffffffffffff1602179055508173ffffffffffffffffffffffffffffffffffffffff168173ffffffffffffffffffffffffffffffffffffffff167f8be0079c531659141344cd1fd0a4f28419497f9722a3daafe3b4186f6b6457e060405160405180910390a35050565b82805482825590600052602060002090810192821562000374579160200282015b828111156200037357825182559160200191906001019062000356565b5b509050620003839190620003cc565b5090565b8260148101928215620003b9579160200282015b82811115620003b85782518255916020019190600101906200039b565b5b509050620003c89190620003cc565b5090565b5b80821115620003e7576000816000905550600101620003cd565b5090565b600081519050919050565b7f4e487b7100000000000000000000000000000000000000000000000000000000600052604160045260246000fd5b7f4e487b7100000000000000000000000000000000000000000000000000000000600052602260045260246000fd5b600060028204905060018216806200046d57607f821691505b60208210810362000483576200048262000425565b5b50919050565b60008190508160005260206000209050919050565b60006020601f8301049050919050565b600082821b905092915050565b600060088302620004ed7fffffffffffffffffffffffffffffffffffffffffffffffffffffffffffffffff82620004ae565b620004f98683620004ae565b95508019841693508086168417925050509392505050565b6000819050919050565b6000819050919050565b600062000546620005406200053a8462000511565b6200051b565b62000511565b9050919050565b6000819050919050565b620005628362000525565b6200057a62000571826200054d565b848454620004bb565b825550505050565b600090565b6200059162000582565b6200059e81848462000557565b505050565b5b81811015620005c657620005ba60008262000587565b600181019050620005a4565b5050565b601f8211156200061557620005df8162000489565b620005ea846200049e565b81016020851015620005fa578190505b6200061262000609856200049e565b830182620005a3565b50505b505050565b600082821c905092915050565b60006200063a600019846008026200061a565b1980831691505092915050565b600062000655838362000627565b9150826002028217905092915050565b6200067082620003eb565b67ffffffffffffffff8111156200068c576200068b620003f6565b5b62000698825462000454565b620006a5828285620005ca565b600060209050601f831160018114620006dd5760008415620006c8578287015190505b620006d4858262000647565b86555062000744565b601f198416620006ed8662000489565b60005b828110156200071757848901518255600182019150602085019450602081019050620006f0565b8683101562000737578489015162000733601f89168262000627565b8355505b6001600288020188555050505b505050505050565b6000604051905090565b600080fd5b600080fd5b600080fd5b6000601f19601f8301169050919050565b620007818262000765565b810181811067ffffffffffffffff82111715620007a357620007a2620003f6565b5b80604052505050565b6000620007b86200074c565b9050620007c6828262000776565b919050565b600067ffffffffffffffff821115620007e957620007e8620003f6565b5b602082029050602081019050919050565b600080fd5b6200080a8162000511565b81146200081657600080fd5b50565b6000815190506200082a81620007ff565b92915050565b6000620008476200084184620007cb565b620007ac565b905080838252602082019050602084028301858111156200086d576200086c620007fa565b5b835b818110156200089a578062000885888262000819565b8452602084019350506020810190506200086f565b5050509392505050565b600082601f830112620008bc57620008bb62000760565b5b8151620008ce84826020860162000830565b91505092915050565b600067ffffffffffffffff821115620008f557620008f4620003f6565b5b602082029050919050565b6000620009176200091184620008d7565b620007ac565b90508060208402830185811115620009345762000933620007fa565b5b835b818110156200096157806200094c888262000819565b84526020840193505060208101905062000936565b5050509392505050565b600082601f83011262000983576200098262000760565b5b60146200099284828562000900565b91505092915050565b600073ffffffffffffffffffffffffffffffffffffffff82169050919050565b6000620009c8826200099b565b9050919050565b620009da81620009bb565b8114620009e657600080fd5b50565b600081519050620009fa81620009cf565b92915050565b6000806000806000610300868803121562000a205762000a1f62000756565b5b600086015167ffffffffffffffff81111562000a415762000a406200075b565b5b62000a4f88828901620008a4565b955050602086015167ffffffffffffffff81111562000a735762000a726200075b565b5b62000a8188828901620008a4565b945050604062000a94888289016200096b565b9350506102c062000aa888828901620009e9565b9250506102e062000abc88828901620009e9565b9150509295509295909350565b600082825260208201905092915050565b7f526166666c65496d706c3a20696e76616c696420617267756d656e7473000000600082015250565b600062000b12601d8362000ac9565b915062000b1f8262000ada565b602082019050919050565b6000602082019050818103600083015262000b458162000b03565b9050919050565b61458e8062000b5c6000396000f3fe6080604052600436106101dc5760003560e01c806370a0823111610102578063b4ba7d3611610095578063c87b56dd11610064578063c87b56dd14610684578063e09b2a62146106c1578063e985e9c5146106ec578063f2fde38b14610729576101e3565b8063b4ba7d36146105de578063b68cf1d7146105f5578063b88d4fde14610632578063c40768761461065b576101e3565b806388e814e6116100d157806388e814e6146105345780638da5cb5b1461055f57806395d89b411461058a578063a22cb465146105b5576101e3565b806370a082311461049e578063715018a6146104db578063779a5157146104f25780637dae059a1461051d576101e3565b80632cfcc5391161017a578063646f22c511610149578063646f22c5146103e0578063649677e11461040b578063694c49be146104365780636cab5e5b14610473576101e3565b80632cfcc53914610359578063328169ad1461036357806342842e0e1461037a5780636352211e146103a3576101e3565b8063095ea7b3116101b6578063095ea7b31461028d5780631f564a45146102b65780632077964f146102f357806323b872dd14610330576101e3565b806301ffc9a7146101e857806306fdde0314610225578063081812fc14610250576101e3565b366101e357005b600080fd5b3480156101f457600080fd5b5061020f600480360381019061020a9190612eb9565b610752565b60405161021c9190612f01565b60405180910390f35b34801561023157600080fd5b5061023a610834565b6040516102479190612fac565b60405180910390f35b34801561025c57600080fd5b5061027760048036038101906102729190613004565b6108c6565b6040516102849190613072565b60405180910390f35b34801561029957600080fd5b506102b460048036038101906102af91906130b9565b61090c565b005b3480156102c257600080fd5b506102dd60048036038101906102d89190613004565b610a23565b6040516102ea9190613108565b60405180910390f35b3480156102ff57600080fd5b5061031a60048036038101906103159190613004565b610a47565b60405161032791906131e1565b60405180910390f35b34801561033c57600080fd5b5061035760048036038101906103529190613203565b610ae8565b005b610361610b48565b005b34801561036f57600080fd5b50610378610e0d565b005b34801561038657600080fd5b506103a1600480360381019061039c9190613203565b610fa0565b005b3480156103af57600080fd5b506103ca60048036038101906103c59190613004565b610fc0565b6040516103d79190613072565b60405180910390f35b3480156103ec57600080fd5b506103f5611046565b6040516104029190613314565b60405180910390f35b34801561041757600080fd5b5061042061109e565b60405161042d9190613108565b60405180910390f35b34801561044257600080fd5b5061045d60048036038101906104589190613004565b6110a4565b60405161046a9190613108565b60405180910390f35b34801561047f57600080fd5b50610488611123565b6040516104959190613108565b60405180910390f35b3480156104aa57600080fd5b506104c560048036038101906104c09190613336565b611129565b6040516104d29190613108565b60405180910390f35b3480156104e757600080fd5b506104f06111e0565b005b3480156104fe57600080fd5b506105076111f4565b60405161051491906133e7565b60405180910390f35b34801561052957600080fd5b5061053261123f565b005b34801561054057600080fd5b50610549611264565b6040516105569190613487565b60405180910390f35b34801561056b57600080fd5b506105746112e5565b6040516105819190613072565b60405180910390f35b34801561059657600080fd5b5061059f61130f565b6040516105ac9190612fac565b60405180910390f35b3480156105c157600080fd5b506105dc60048036038101906105d791906134cf565b6113a1565b005b3480156105ea57600080fd5b506105f36113b7565b005b34801561060157600080fd5b5061061c60048036038101906106179190613336565b6113dc565b6040516106299190613314565b60405180910390f35b34801561063e57600080fd5b5061065960048036038101906106549190613644565b611652565b005b34801561066757600080fd5b50610682600480360381019061067d91906130b9565b6116b4565b005b34801561069057600080fd5b506106ab60048036038101906106a69190613004565b611818565b6040516106b89190612fac565b60405180910390f35b3480156106cd57600080fd5b506106d6611844565b6040516106e39190613726565b60405180910390f35b3480156106f857600080fd5b50610713600480360381019061070e9190613741565b61186a565b6040516107209190612f01565b60405180910390f35b34801561073557600080fd5b50610750600480360381019061074b9190613336565b6118fe565b005b60007f80ac58cd000000000000000000000000000000000000000000000000000000007bffffffffffffffffffffffffffffffffffffffffffffffffffffffff1916827bffffffffffffffffffffffffffffffffffffffffffffffffffffffff1916148061081d57507f5b5e139f000000000000000000000000000000000000000000000000000000007bffffffffffffffffffffffffffffffffffffffffffffffffffffffff1916827bffffffffffffffffffffffffffffffffffffffffffffffffffffffff1916145b8061082d575061082c82611981565b5b9050919050565b606060008054610843906137b0565b80601f016020809104026020016040519081016040528092919081815260200182805461086f906137b0565b80156108bc5780601f10610891576101008083540402835291602001916108bc565b820191906000526020600020905b81548152906001019060200180831161089f57829003601f168201915b5050505050905090565b60006108d1826119eb565b6004600083815260200190815260200160002060009054906101000a900473ffffffffffffffffffffffffffffffffffffffff169050919050565b600061091782610fc0565b90508073ffffffffffffffffffffffffffffffffffffffff168373ffffffffffffffffffffffffffffffffffffffff1603610987576040517f08c379a000000000000000000000000000000000000000000000000000000000815260040161097e90613853565b60405180910390fd5b8073ffffffffffffffffffffffffffffffffffffffff166109a6611a36565b73ffffffffffffffffffffffffffffffffffffffff1614806109d557506109d4816109cf611a36565b61186a565b5b610a14576040517f08c379a0000000000000000000000000000000000000000000000000000000008152600401610a0b906138e5565b60405180910390fd5b610a1e8383611a3e565b505050565b600c8181548110610a3357600080fd5b906000526020600020016000915090505481565b606060236000838152602001908152602001600020805480602002602001604051908101604052809291908181526020018280548015610adc57602002820191906000526020600020905b8160009054906101000a900473ffffffffffffffffffffffffffffffffffffffff1673ffffffffffffffffffffffffffffffffffffffff1681526020019060010190808311610a92575b50505050509050919050565b610af9610af3611a36565b82611af7565b610b38576040517f08c379a0000000000000000000000000000000000000000000000000000000008152600401610b2f90613977565b60405180910390fd5b610b43838383611b8c565b505050565b602160009054906101000a900460ff16610b97576040517f08c379a0000000000000000000000000000000000000000000000000000000008152600401610b8e906139e3565b60405180910390fd5b600954341015610bdc576040517f08c379a0000000000000000000000000000000000000000000000000000000008152600401610bd390613a4f565b60405180910390fd5b6000600a5411610c21576040517f08c379a0000000000000000000000000000000000000000000000000000000008152600401610c1890613abb565b60405180910390fd5b6001600a6000828254610c349190613b0a565b92505081905550602260008154610c4a90613b3e565b91905081905550600033602254600143610c649190613b0a565b40604051602001610c7793929190613b9f565b6040516020818303038152906040528051906020012060001c90506000600b6001600b80549050610ca89190613b0a565b81548110610cb957610cb8613bd6565b5b90600052602060002001549050600060018284610cd69190613c34565b610ce09190613c65565b90506000610ced82611e85565b90506000600c8281548110610d0557610d04613bd6565b5b906000526020600020015490506000600860009054906101000a900473ffffffffffffffffffffffffffffffffffffffff1673ffffffffffffffffffffffffffffffffffffffff1663a144819433846040518363ffffffff1660e01b8152600401610d71929190613c99565b6020604051808303816000875af1158015610d90573d6000803e3d6000fd5b505050506040513d601f19601f82011682018060405250810190610db49190613cd7565b905080823373ffffffffffffffffffffffffffffffffffffffff167f583f2b104ddadb04015734001b634e73a2cd12f3beccb23ad14d2df0ab279dcf60405160405180910390a4610e053383611f81565b505050505050565b610e15612002565b600033602254600143610e289190613b0a565b40604051602001610e3b93929190613b9f565b6040516020818303038152906040528051906020012060001c90506000610e6182612080565b905060005b6014811015610f9b57600073ffffffffffffffffffffffffffffffffffffffff16828260148110610e9a57610e99613bd6565b5b602002015173ffffffffffffffffffffffffffffffffffffffff160315610f9b57600860009054906101000a900473ffffffffffffffffffffffffffffffffffffffff1673ffffffffffffffffffffffffffffffffffffffff1663a1448194838360148110610f0c57610f0b613bd6565b5b6020020151600d8460148110610f2557610f24613bd6565b5b01546040518363ffffffff1660e01b8152600401610f44929190613c99565b6020604051808303816000875af1158015610f63573d6000803e3d6000fd5b505050506040513d601f19601f82011682018060405250810190610f879190613cd7565b508080610f9390613b3e565b915050610e66565b505050565b610fbb83838360405180602001604052806000815250611652565b505050565b600080610fcc83612157565b9050600073ffffffffffffffffffffffffffffffffffffffff168173ffffffffffffffffffffffffffffffffffffffff160361103d576040517f08c379a000000000000000000000000000000000000000000000000000000000815260040161103490613d50565b60405180910390fd5b80915050919050565b6060600b80548060200260200160405190810160405280929190818152602001828054801561109457602002820191906000526020600020905b815481526020019060010190808311611080575b5050505050905090565b60095481565b600080600090505b600c805490508110156111185782600c82815481106110ce576110cd613bd6565b5b90600052602060002001540361110557600b81815481106110f2576110f1613bd6565b5b906000526020600020015491505061111e565b808061111090613b3e565b9150506110ac565b50600090505b919050565b600a5481565b60008073ffffffffffffffffffffffffffffffffffffffff168273ffffffffffffffffffffffffffffffffffffffff1603611199576040517f08c379a000000000000000000000000000000000000000000000000000000000815260040161119090613de2565b60405180910390fd5b600360008373ffffffffffffffffffffffffffffffffffffffff1673ffffffffffffffffffffffffffffffffffffffff168152602001908152602001600020549050919050565b6111e8612002565b6111f26000612194565b565b6111fc612d6d565b600d601480602002604051908101604052809291908260148015611235576020028201915b815481526020019060010190808311611221575b5050505050905090565b611247612002565b6000602160006101000a81548160ff021916908315150217905550565b61126c612d90565b60246014806020026040519081016040528092919082601480156112db576020028201915b8160009054906101000a900473ffffffffffffffffffffffffffffffffffffffff1673ffffffffffffffffffffffffffffffffffffffff1681526020019060010190808311611291575b5050505050905090565b6000600660009054906101000a900473ffffffffffffffffffffffffffffffffffffffff16905090565b60606001805461131e906137b0565b80601f016020809104026020016040519081016040528092919081815260200182805461134a906137b0565b80156113975780601f1061136c57610100808354040283529160200191611397565b820191906000526020600020905b81548152906001019060200180831161137a57829003601f168201915b5050505050905090565b6113b36113ac611a36565b838361225a565b5050565b6113bf612002565b6001602160006101000a81548160ff021916908315150217905550565b60606000600860009054906101000a900473ffffffffffffffffffffffffffffffffffffffff1673ffffffffffffffffffffffffffffffffffffffff166370a08231846040518263ffffffff1660e01b815260040161143b9190613072565b602060405180830381865afa158015611458573d6000803e3d6000fd5b505050506040513d601f19601f8201168201806040525081019061147c9190613cd7565b905060008167ffffffffffffffff81111561149a57611499613519565b5b6040519080825280602002602001820160405280156114c85781602001602082028036833780820191505090505b50905060005b82811015611647576000600860009054906101000a900473ffffffffffffffffffffffffffffffffffffffff1673ffffffffffffffffffffffffffffffffffffffff16632f745c5987846040518363ffffffff1660e01b8152600401611535929190613c99565b602060405180830381865afa158015611552573d6000803e3d6000fd5b505050506040513d601f19601f820116820180604052508101906115769190613cd7565b9050600860009054906101000a900473ffffffffffffffffffffffffffffffffffffffff1673ffffffffffffffffffffffffffffffffffffffff1663188b85b4826040518263ffffffff1660e01b81526004016115d39190613108565b602060405180830381865afa1580156115f0573d6000803e3d6000fd5b505050506040513d601f19601f820116820180604052508101906116149190613cd7565b83838151811061162757611626613bd6565b5b60200260200101818152505050808061163f90613b3e565b9150506114ce565b508092505050919050565b61166361165d611a36565b83611af7565b6116a2576040517f08c379a000000000000000000000000000000000000000000000000000000000815260040161169990613977565b60405180910390fd5b6116ae848484846123c6565b50505050565b6116bc612002565b6000603860009054906101000a900473ffffffffffffffffffffffffffffffffffffffff1673ffffffffffffffffffffffffffffffffffffffff1663feaf968c6040518163ffffffff1660e01b815260040160a060405180830381865afa15801561172b573d6000803e3d6000fd5b505050506040513d601f19601f8201168201806040525081019061174f9190613e7a565b505050915050600081836117639190613ef5565b905060008473ffffffffffffffffffffffffffffffffffffffff168260405161178b90613f68565b60006040518083038185875af1925050503d80600081146117c8576040519150601f19603f3d011682016040523d82523d6000602084013e6117cd565b606091505b5050905080611811576040517f08c379a000000000000000000000000000000000000000000000000000000000815260040161180890613fc9565b60405180910390fd5b5050505050565b606060078260405160200161182e9291906140f9565b6040516020818303038152906040529050919050565b600860009054906101000a900473ffffffffffffffffffffffffffffffffffffffff1681565b6000600560008473ffffffffffffffffffffffffffffffffffffffff1673ffffffffffffffffffffffffffffffffffffffff16815260200190815260200160002060008373ffffffffffffffffffffffffffffffffffffffff1673ffffffffffffffffffffffffffffffffffffffff16815260200190815260200160002060009054906101000a900460ff16905092915050565b611906612002565b600073ffffffffffffffffffffffffffffffffffffffff168173ffffffffffffffffffffffffffffffffffffffff1603611975576040517f08c379a000000000000000000000000000000000000000000000000000000000815260040161196c9061419e565b60405180910390fd5b61197e81612194565b50565b60007f01ffc9a7000000000000000000000000000000000000000000000000000000007bffffffffffffffffffffffffffffffffffffffffffffffffffffffff1916827bffffffffffffffffffffffffffffffffffffffffffffffffffffffff1916149050919050565b6119f481612422565b611a33576040517f08c379a0000000000000000000000000000000000000000000000000000000008152600401611a2a90613d50565b60405180910390fd5b50565b600033905090565b816004600083815260200190815260200160002060006101000a81548173ffffffffffffffffffffffffffffffffffffffff021916908373ffffffffffffffffffffffffffffffffffffffff160217905550808273ffffffffffffffffffffffffffffffffffffffff16611ab183610fc0565b73ffffffffffffffffffffffffffffffffffffffff167f8c5be1e5ebec7d5bd14f71427d1e84f3dd0314c0f7b2291e5b200ac8c7c3b92560405160405180910390a45050565b600080611b0383610fc0565b90508073ffffffffffffffffffffffffffffffffffffffff168473ffffffffffffffffffffffffffffffffffffffff161480611b455750611b44818561186a565b5b80611b8357508373ffffffffffffffffffffffffffffffffffffffff16611b6b846108c6565b73ffffffffffffffffffffffffffffffffffffffff16145b91505092915050565b8273ffffffffffffffffffffffffffffffffffffffff16611bac82610fc0565b73ffffffffffffffffffffffffffffffffffffffff1614611c02576040517f08c379a0000000000000000000000000000000000000000000000000000000008152600401611bf990614230565b60405180910390fd5b600073ffffffffffffffffffffffffffffffffffffffff168273ffffffffffffffffffffffffffffffffffffffff1603611c71576040517f08c379a0000000000000000000000000000000000000000000000000000000008152600401611c68906142c2565b60405180910390fd5b611c7e8383836001612463565b8273ffffffffffffffffffffffffffffffffffffffff16611c9e82610fc0565b73ffffffffffffffffffffffffffffffffffffffff1614611cf4576040517f08c379a0000000000000000000000000000000000000000000000000000000008152600401611ceb90614230565b60405180910390fd5b6004600082815260200190815260200160002060006101000a81549073ffffffffffffffffffffffffffffffffffffffff02191690556001600360008573ffffffffffffffffffffffffffffffffffffffff1673ffffffffffffffffffffffffffffffffffffffff168152602001908152602001600020600082825403925050819055506001600360008473ffffffffffffffffffffffffffffffffffffffff1673ffffffffffffffffffffffffffffffffffffffff16815260200190815260200160002060008282540192505081905550816002600083815260200190815260200160002060006101000a81548173ffffffffffffffffffffffffffffffffffffffff021916908373ffffffffffffffffffffffffffffffffffffffff160217905550808273ffffffffffffffffffffffffffffffffffffffff168473ffffffffffffffffffffffffffffffffffffffff167fddf252ad1be2c89b69c2b068fc378daa952ba7f163c4a11628f55a4df523b3ef60405160405180910390a4611e808383836001612589565b505050565b600080600b8054905090506000600182611e9f9190613b0a565b905060005b82811015611f76576000600b8281548110611ec257611ec1613bd6565b5b90600052602060002001540315611f635784600b8281548110611ee857611ee7613bd6565b5b90600052602060002001541015611f2a57600b8181548110611f0d57611f0c613bd6565b5b906000526020600020015485611f239190613b0a565b9450611f62565b809150600b8181548110611f4157611f40613bd6565b5b906000526020600020016000815480929190611f5c906142e2565b91905055505b5b8080611f6e90613b3e565b915050611ea4565b508092505050919050565b60236000828152602001908152602001600020829080600181540180825580915050600190039060005260206000200160009091909190916101000a81548173ffffffffffffffffffffffffffffffffffffffff021916908373ffffffffffffffffffffffffffffffffffffffff160217905550611ffe8261258f565b5050565b61200a611a36565b73ffffffffffffffffffffffffffffffffffffffff166120286112e5565b73ffffffffffffffffffffffffffffffffffffffff161461207e576040517f08c379a000000000000000000000000000000000000000000000000000000000815260040161207590614357565b60405180910390fd5b565b612088612d90565b60006014836120979190613c34565b905060005b6014811461215057602481601481106120b8576120b7613bd6565b5b0160009054906101000a900473ffffffffffffffffffffffffffffffffffffffff168383601481106120ed576120ec613bd6565b5b602002019073ffffffffffffffffffffffffffffffffffffffff16908173ffffffffffffffffffffffffffffffffffffffff168152505060146001836121339190613c65565b61213d9190613c34565b91508061214990613b3e565b905061209c565b5050919050565b60006002600083815260200190815260200160002060009054906101000a900473ffffffffffffffffffffffffffffffffffffffff169050919050565b6000600660009054906101000a900473ffffffffffffffffffffffffffffffffffffffff16905081600660006101000a81548173ffffffffffffffffffffffffffffffffffffffff021916908373ffffffffffffffffffffffffffffffffffffffff1602179055508173ffffffffffffffffffffffffffffffffffffffff168173ffffffffffffffffffffffffffffffffffffffff167f8be0079c531659141344cd1fd0a4f28419497f9722a3daafe3b4186f6b6457e060405160405180910390a35050565b8173ffffffffffffffffffffffffffffffffffffffff168373ffffffffffffffffffffffffffffffffffffffff16036122c8576040517f08c379a00000000000000000000000000000000000000000000000000000000081526004016122bf906143c3565b60405180910390fd5b80600560008573ffffffffffffffffffffffffffffffffffffffff1673ffffffffffffffffffffffffffffffffffffffff16815260200190815260200160002060008473ffffffffffffffffffffffffffffffffffffffff1673ffffffffffffffffffffffffffffffffffffffff16815260200190815260200160002060006101000a81548160ff0219169083151502179055508173ffffffffffffffffffffffffffffffffffffffff168373ffffffffffffffffffffffffffffffffffffffff167f17307eab39ab6107e8899845ad3d59bd9653f200f220920489ca2b5937696c31836040516123b99190612f01565b60405180910390a3505050565b6123d1848484611b8c565b6123dd848484846127fb565b61241c576040517f08c379a000000000000000000000000000000000000000000000000000000000815260040161241390614455565b60405180910390fd5b50505050565b60008073ffffffffffffffffffffffffffffffffffffffff1661244483612157565b73ffffffffffffffffffffffffffffffffffffffff1614159050919050565b600181111561258357600073ffffffffffffffffffffffffffffffffffffffff168473ffffffffffffffffffffffffffffffffffffffff16146124f75780600360008673ffffffffffffffffffffffffffffffffffffffff1673ffffffffffffffffffffffffffffffffffffffff16815260200190815260200160002060008282546124ef9190613b0a565b925050819055505b600073ffffffffffffffffffffffffffffffffffffffff168373ffffffffffffffffffffffffffffffffffffffff16146125825780600360008573ffffffffffffffffffffffffffffffffffffffff1673ffffffffffffffffffffffffffffffffffffffff168152602001908152602001600020600082825461257a9190613c65565b925050819055505b5b50505050565b50505050565b6000600860009054906101000a900473ffffffffffffffffffffffffffffffffffffffff1673ffffffffffffffffffffffffffffffffffffffff166370a08231836040518263ffffffff1660e01b81526004016125ec9190613072565b602060405180830381865afa158015612609573d6000803e3d6000fd5b505050506040513d601f19601f8201168201806040525081019061262d9190613cd7565b905060008073ffffffffffffffffffffffffffffffffffffffff16602460136014811061265d5761265c613bd6565b5b0160009054906101000a900473ffffffffffffffffffffffffffffffffffffffff1673ffffffffffffffffffffffffffffffffffffffff161461277157600860009054906101000a900473ffffffffffffffffffffffffffffffffffffffff1673ffffffffffffffffffffffffffffffffffffffff166370a0823160246013601481106126ed576126ec613bd6565b5b0160009054906101000a900473ffffffffffffffffffffffffffffffffffffffff166040518263ffffffff1660e01b815260040161272b9190613072565b602060405180830381865afa158015612748573d6000803e3d6000fd5b505050506040513d601f19601f8201168201806040525081019061276c9190613cd7565b612774565b60005b90508082116127845750506127f8565b6001816127919190613c65565b82036127ed578260246013601481106127ad576127ac613bd6565b5b0160006101000a81548173ffffffffffffffffffffffffffffffffffffffff021916908373ffffffffffffffffffffffffffffffffffffffff1602179055505b6127f5612982565b50505b50565b600061281c8473ffffffffffffffffffffffffffffffffffffffff16612d4a565b15612975578373ffffffffffffffffffffffffffffffffffffffff1663150b7a02612845611a36565b8786866040518563ffffffff1660e01b815260040161286794939291906144ca565b6020604051808303816000875af19250505080156128a357506040513d601f19601f820116820180604052508101906128a0919061452b565b60015b612925573d80600081146128d3576040519150601f19603f3d011682016040523d82523d6000602084013e6128d8565b606091505b50600081510361291d576040517f08c379a000000000000000000000000000000000000000000000000000000000815260040161291490614455565b60405180910390fd5b805181602001fd5b63150b7a0260e01b7bffffffffffffffffffffffffffffffffffffffffffffffffffffffff1916817bffffffffffffffffffffffffffffffffffffffffffffffffffffffff19161491505061297a565b600190505b949350505050565b600060246014806020026040519081016040528092919082601480156129f3576020028201915b8160009054906101000a900473ffffffffffffffffffffffffffffffffffffffff1673ffffffffffffffffffffffffffffffffffffffff16815260200190600101908083116129a9575b505050505090506000601390505b6000811115612d345760008073ffffffffffffffffffffffffffffffffffffffff1683600184612a319190613b0a565b60148110612a4257612a41613bd6565b5b602002015173ffffffffffffffffffffffffffffffffffffffff1614612b2657600860009054906101000a900473ffffffffffffffffffffffffffffffffffffffff1673ffffffffffffffffffffffffffffffffffffffff166370a0823184600185612aae9190613b0a565b60148110612abf57612abe613bd6565b5b60200201516040518263ffffffff1660e01b8152600401612ae09190613072565b602060405180830381865afa158015612afd573d6000803e3d6000fd5b505050506040513d601f19601f82011682018060405250810190612b219190613cd7565b612b29565b60005b905060008073ffffffffffffffffffffffffffffffffffffffff16848460148110612b5757612b56613bd6565b5b602002015173ffffffffffffffffffffffffffffffffffffffff1614612c2f57600860009054906101000a900473ffffffffffffffffffffffffffffffffffffffff1673ffffffffffffffffffffffffffffffffffffffff166370a08231858560148110612bc857612bc7613bd6565b5b60200201516040518263ffffffff1660e01b8152600401612be99190613072565b602060405180830381865afa158015612c06573d6000803e3d6000fd5b505050506040513d601f19601f82011682018060405250810190612c2a9190613cd7565b612c32565b60005b905081811115612d1f576000848460148110612c5157612c50613bd6565b5b6020020151905084600185612c669190613b0a565b60148110612c7757612c76613bd6565b5b6020020151858560148110612c8f57612c8e613bd6565b5b602002019073ffffffffffffffffffffffffffffffffffffffff16908173ffffffffffffffffffffffffffffffffffffffff16815250508085600186612cd59190613b0a565b60148110612ce657612ce5613bd6565b5b602002019073ffffffffffffffffffffffffffffffffffffffff16908173ffffffffffffffffffffffffffffffffffffffff1681525050505b50508080612d2c906142e2565b915050612a01565b50806024906014612d46929190612db3565b5050565b6000808273ffffffffffffffffffffffffffffffffffffffff163b119050919050565b604051806102800160405280601490602082028036833780820191505090505090565b604051806102800160405280601490602082028036833780820191505090505090565b8260148101928215612e1f579160200282015b82811115612e1e5782518260006101000a81548173ffffffffffffffffffffffffffffffffffffffff021916908373ffffffffffffffffffffffffffffffffffffffff16021790555091602001919060010190612dc6565b5b509050612e2c9190612e30565b5090565b5b80821115612e49576000816000905550600101612e31565b5090565b6000604051905090565b600080fd5b600080fd5b60007fffffffff0000000000000000000000000000000000000000000000000000000082169050919050565b612e9681612e61565b8114612ea157600080fd5b50565b600081359050612eb381612e8d565b92915050565b600060208284031215612ecf57612ece612e57565b5b6000612edd84828501612ea4565b91505092915050565b60008115159050919050565b612efb81612ee6565b82525050565b6000602082019050612f166000830184612ef2565b92915050565b600081519050919050565b600082825260208201905092915050565b60005b83811015612f56578082015181840152602081019050612f3b565b60008484015250505050565b6000601f19601f8301169050919050565b6000612f7e82612f1c565b612f888185612f27565b9350612f98818560208601612f38565b612fa181612f62565b840191505092915050565b60006020820190508181036000830152612fc68184612f73565b905092915050565b6000819050919050565b612fe181612fce565b8114612fec57600080fd5b50565b600081359050612ffe81612fd8565b92915050565b60006020828403121561301a57613019612e57565b5b600061302884828501612fef565b91505092915050565b600073ffffffffffffffffffffffffffffffffffffffff82169050919050565b600061305c82613031565b9050919050565b61306c81613051565b82525050565b60006020820190506130876000830184613063565b92915050565b61309681613051565b81146130a157600080fd5b50565b6000813590506130b38161308d565b92915050565b600080604083850312156130d0576130cf612e57565b5b60006130de858286016130a4565b92505060206130ef85828601612fef565b9150509250929050565b61310281612fce565b82525050565b600060208201905061311d60008301846130f9565b92915050565b600081519050919050565b600082825260208201905092915050565b6000819050602082019050919050565b61315881613051565b82525050565b600061316a838361314f565b60208301905092915050565b6000602082019050919050565b600061318e82613123565b613198818561312e565b93506131a38361313f565b8060005b838110156131d45781516131bb888261315e565b97506131c683613176565b9250506001810190506131a7565b5085935050505092915050565b600060208201905081810360008301526131fb8184613183565b905092915050565b60008060006060848603121561321c5761321b612e57565b5b600061322a868287016130a4565b935050602061323b868287016130a4565b925050604061324c86828701612fef565b9150509250925092565b600081519050919050565b600082825260208201905092915050565b6000819050602082019050919050565b61328b81612fce565b82525050565b600061329d8383613282565b60208301905092915050565b6000602082019050919050565b60006132c182613256565b6132cb8185613261565b93506132d683613272565b8060005b838110156133075781516132ee8882613291565b97506132f9836132a9565b9250506001810190506132da565b5085935050505092915050565b6000602082019050818103600083015261332e81846132b6565b905092915050565b60006020828403121561334c5761334b612e57565b5b600061335a848285016130a4565b91505092915050565b600060149050919050565b600081905092915050565b6000819050919050565b6000602082019050919050565b61339981613363565b6133a3818461336e565b92506133ae82613379565b8060005b838110156133df5781516133c68782613291565b96506133d183613383565b9250506001810190506133b2565b505050505050565b6000610280820190506133fd6000830184613390565b92915050565b600060149050919050565b600081905092915050565b6000819050919050565b6000602082019050919050565b61343981613403565b613443818461340e565b925061344e82613419565b8060005b8381101561347f578151613466878261315e565b965061347183613423565b925050600181019050613452565b505050505050565b60006102808201905061349d6000830184613430565b92915050565b6134ac81612ee6565b81146134b757600080fd5b50565b6000813590506134c9816134a3565b92915050565b600080604083850312156134e6576134e5612e57565b5b60006134f4858286016130a4565b9250506020613505858286016134ba565b9150509250929050565b600080fd5b600080fd5b7f4e487b7100000000000000000000000000000000000000000000000000000000600052604160045260246000fd5b61355182612f62565b810181811067ffffffffffffffff821117156135705761356f613519565b5b80604052505050565b6000613583612e4d565b905061358f8282613548565b919050565b600067ffffffffffffffff8211156135af576135ae613519565b5b6135b882612f62565b9050602081019050919050565b82818337600083830152505050565b60006135e76135e284613594565b613579565b90508281526020810184848401111561360357613602613514565b5b61360e8482856135c5565b509392505050565b600082601f83011261362b5761362a61350f565b5b813561363b8482602086016135d4565b91505092915050565b6000806000806080858703121561365e5761365d612e57565b5b600061366c878288016130a4565b945050602061367d878288016130a4565b935050604061368e87828801612fef565b925050606085013567ffffffffffffffff8111156136af576136ae612e5c565b5b6136bb87828801613616565b91505092959194509250565b6000819050919050565b60006136ec6136e76136e284613031565b6136c7565b613031565b9050919050565b60006136fe826136d1565b9050919050565b6000613710826136f3565b9050919050565b61372081613705565b82525050565b600060208201905061373b6000830184613717565b92915050565b6000806040838503121561375857613757612e57565b5b6000613766858286016130a4565b9250506020613777858286016130a4565b9150509250929050565b7f4e487b7100000000000000000000000000000000000000000000000000000000600052602260045260246000fd5b600060028204905060018216806137c857607f821691505b6020821081036137db576137da613781565b5b50919050565b7f4552433732313a20617070726f76616c20746f2063757272656e74206f776e6560008201527f7200000000000000000000000000000000000000000000000000000000000000602082015250565b600061383d602183612f27565b9150613848826137e1565b604082019050919050565b6000602082019050818103600083015261386c81613830565b9050919050565b7f4552433732313a20617070726f76652063616c6c6572206973206e6f7420746f60008201527f6b656e206f776e6572206f7220617070726f76656420666f7220616c6c000000602082015250565b60006138cf603d83612f27565b91506138da82613873565b604082019050919050565b600060208201905081810360008301526138fe816138c2565b9050919050565b7f4552433732313a2063616c6c6572206973206e6f7420746f6b656e206f776e6560008201527f72206f7220617070726f76656400000000000000000000000000000000000000602082015250565b6000613961602d83612f27565b915061396c82613905565b604082019050919050565b6000602082019050818103600083015261399081613954565b9050919050565b7f526166666c65496d706c3a20726166666c6520697320636c6f73656400000000600082015250565b60006139cd601c83612f27565b91506139d882613997565b602082019050919050565b600060208201905081810360008301526139fc816139c0565b9050919050565b7f526166666c653a206e6f7420656e6f7567682065746865722073656e74000000600082015250565b6000613a39601d83612f27565b9150613a4482613a03565b602082019050919050565b60006020820190508181036000830152613a6881613a2c565b9050919050565b7f526166666c653a20416c6c20706f736974696f6e732061726520636c6f736564600082015250565b6000613aa5602083612f27565b9150613ab082613a6f565b602082019050919050565b60006020820190508181036000830152613ad481613a98565b9050919050565b7f4e487b7100000000000000000000000000000000000000000000000000000000600052601160045260246000fd5b6000613b1582612fce565b9150613b2083612fce565b9250828203905081811115613b3857613b37613adb565b5b92915050565b6000613b4982612fce565b91507fffffffffffffffffffffffffffffffffffffffffffffffffffffffffffffffff8203613b7b57613b7a613adb565b5b600182019050919050565b6000819050919050565b613b9981613b86565b82525050565b6000606082019050613bb46000830186613063565b613bc160208301856130f9565b613bce6040830184613b90565b949350505050565b7f4e487b7100000000000000000000000000000000000000000000000000000000600052603260045260246000fd5b7f4e487b7100000000000000000000000000000000000000000000000000000000600052601260045260246000fd5b6000613c3f82612fce565b9150613c4a83612fce565b925082613c5a57613c59613c05565b5b828206905092915050565b6000613c7082612fce565b9150613c7b83612fce565b9250828201905080821115613c9357613c92613adb565b5b92915050565b6000604082019050613cae6000830185613063565b613cbb60208301846130f9565b9392505050565b600081519050613cd181612fd8565b92915050565b600060208284031215613ced57613cec612e57565b5b6000613cfb84828501613cc2565b91505092915050565b7f4552433732313a20696e76616c696420746f6b656e2049440000000000000000600082015250565b6000613d3a601883612f27565b9150613d4582613d04565b602082019050919050565b60006020820190508181036000830152613d6981613d2d565b9050919050565b7f4552433732313a2061646472657373207a65726f206973206e6f74206120766160008201527f6c6964206f776e65720000000000000000000000000000000000000000000000602082015250565b6000613dcc602983612f27565b9150613dd782613d70565b604082019050919050565b60006020820190508181036000830152613dfb81613dbf565b9050919050565b600069ffffffffffffffffffff82169050919050565b613e2181613e02565b8114613e2c57600080fd5b50565b600081519050613e3e81613e18565b92915050565b6000819050919050565b613e5781613e44565b8114613e6257600080fd5b50565b600081519050613e7481613e4e565b92915050565b600080600080600060a08688031215613e9657613e95612e57565b5b6000613ea488828901613e2f565b9550506020613eb588828901613e65565b9450506040613ec688828901613cc2565b9350506060613ed788828901613cc2565b9250506080613ee888828901613e2f565b9150509295509295909350565b6000613f0082612fce565b9150613f0b83612fce565b9250828202613f1981612fce565b91508282048414831517613f3057613f2f613adb565b5b5092915050565b600081905092915050565b50565b6000613f52600083613f37565b9150613f5d82613f42565b600082019050919050565b6000613f7382613f45565b9150819050919050565b7f526166666c65496d706c3a205472616e73666572206661696c65640000000000600082015250565b6000613fb3601b83612f27565b9150613fbe82613f7d565b602082019050919050565b60006020820190508181036000830152613fe281613fa6565b9050919050565b600081905092915050565b60008190508160005260206000209050919050565b60008154614016816137b0565b6140208186613fe9565b9450600182166000811461403b576001811461405057614083565b60ff1983168652811515820286019350614083565b61405985613ff4565b60005b8381101561407b5781548189015260018201915060208101905061405c565b838801955050505b50505092915050565b6000819050919050565b6140a76140a282612fce565b61408c565b82525050565b7f2e6a736f6e000000000000000000000000000000000000000000000000000000600082015250565b60006140e3600583613fe9565b91506140ee826140ad565b600582019050919050565b60006141058285614009565b91506141118284614096565b602082019150614120826140d6565b91508190509392505050565b7f4f776e61626c653a206e6577206f776e657220697320746865207a65726f206160008201527f6464726573730000000000000000000000000000000000000000000000000000602082015250565b6000614188602683612f27565b91506141938261412c565b604082019050919050565b600060208201905081810360008301526141b78161417b565b9050919050565b7f4552433732313a207472616e736665722066726f6d20696e636f72726563742060008201527f6f776e6572000000000000000000000000000000000000000000000000000000602082015250565b600061421a602583612f27565b9150614225826141be565b604082019050919050565b600060208201905081810360008301526142498161420d565b9050919050565b7f4552433732313a207472616e7366657220746f20746865207a65726f2061646460008201527f7265737300000000000000000000000000000000000000000000000000000000602082015250565b60006142ac602483612f27565b91506142b782614250565b604082019050919050565b600060208201905081810360008301526142db8161429f565b9050919050565b60006142ed82612fce565b915060008203614300576142ff613adb565b5b600182039050919050565b7f4f776e61626c653a2063616c6c6572206973206e6f7420746865206f776e6572600082015250565b6000614341602083612f27565b915061434c8261430b565b602082019050919050565b6000602082019050818103600083015261437081614334565b9050919050565b7f4552433732313a20617070726f766520746f2063616c6c657200000000000000600082015250565b60006143ad601983612f27565b91506143b882614377565b602082019050919050565b600060208201905081810360008301526143dc816143a0565b9050919050565b7f4552433732313a207472616e7366657220746f206e6f6e20455243373231526560008201527f63656976657220696d706c656d656e7465720000000000000000000000000000602082015250565b600061443f603283612f27565b915061444a826143e3565b604082019050919050565b6000602082019050818103600083015261446e81614432565b9050919050565b600081519050919050565b600082825260208201905092915050565b600061449c82614475565b6144a68185614480565b93506144b6818560208601612f38565b6144bf81612f62565b840191505092915050565b60006080820190506144df6000830187613063565b6144ec6020830186613063565b6144f960408301856130f9565b818103606083015261450b8184614491565b905095945050505050565b60008151905061452581612e8d565b92915050565b60006020828403121561454157614540612e57565b5b600061454f84828501614516565b9150509291505056fea26469706673582212202568a827c0032c8cb126d0bb09c810644b0c6fce1119a2adc5b4c3e68cfaf16c64736f6c63430008110033",
  "linkReferences": {},
  "deployedLinkReferences": {}
}