{
  "_format": "hh-sol-artifact-1",
  "contractName": "RaffleImpl",
  "sourceName": "contracts/RaffleImpl.sol",
  "abi": [
    {
      "inputs": [
        {
          "internalType": "uint256[]",
          "name": "_amounts",
          "type": "uint256[]"
        },
        {
          "internalType": "uint256[]",
          "name": "_sums",
          "type": "uint256[]"
        },
        {
          "internalType": "uint256[20]",
          "name": "_finalGameSums",
          "type": "uint256[20]"
        },
        {
          "internalType": "address",
          "name": "_priceFeed",
          "type": "address"
        },
        {
          "internalType": "address",
          "name": "_ticketNft",
          "type": "address"
        }
      ],
      "stateMutability": "nonpayable",
      "type": "constructor"
    },
    {
      "anonymous": false,
      "inputs": [
        {
          "indexed": true,
          "internalType": "address",
          "name": "owner",
          "type": "address"
        },
        {
          "indexed": true,
          "internalType": "address",
          "name": "approved",
          "type": "address"
        },
        {
          "indexed": true,
          "internalType": "uint256",
          "name": "tokenId",
          "type": "uint256"
        }
      ],
      "name": "Approval",
      "type": "event"
    },
    {
      "anonymous": false,
      "inputs": [
        {
          "indexed": true,
          "internalType": "address",
          "name": "owner",
          "type": "address"
        },
        {
          "indexed": true,
          "internalType": "address",
          "name": "operator",
          "type": "address"
        },
        {
          "indexed": false,
          "internalType": "bool",
          "name": "approved",
          "type": "bool"
        }
      ],
      "name": "ApprovalForAll",
      "type": "event"
    },
    {
      "anonymous": false,
      "inputs": [
        {
          "indexed": true,
          "internalType": "address",
          "name": "previousOwner",
          "type": "address"
        },
        {
          "indexed": true,
          "internalType": "address",
          "name": "newOwner",
          "type": "address"
        }
      ],
      "name": "OwnershipTransferred",
      "type": "event"
    },
    {
      "anonymous": false,
      "inputs": [
        {
          "indexed": true,
          "internalType": "address",
          "name": "from",
          "type": "address"
        },
        {
          "indexed": true,
          "internalType": "address",
          "name": "to",
          "type": "address"
        },
        {
          "indexed": true,
          "internalType": "uint256",
          "name": "tokenId",
          "type": "uint256"
        }
      ],
      "name": "Transfer",
      "type": "event"
    },
    {
      "anonymous": false,
      "inputs": [
        {
          "indexed": true,
          "internalType": "address",
          "name": "player",
          "type": "address"
        },
        {
          "indexed": true,
          "internalType": "uint256",
          "name": "sum",
          "type": "uint256"
        },
        {
          "indexed": true,
          "internalType": "uint256",
          "name": "tokenId",
          "type": "uint256"
        }
      ],
      "name": "WinnerChosen",
      "type": "event"
    },
    {
      "inputs": [
        {
          "internalType": "address",
          "name": "to",
          "type": "address"
        },
        {
          "internalType": "uint256",
          "name": "tokenId",
          "type": "uint256"
        }
      ],
      "name": "approve",
      "outputs": [],
      "stateMutability": "nonpayable",
      "type": "function"
    },
    {
      "inputs": [
        {
          "internalType": "address",
          "name": "owner",
          "type": "address"
        }
      ],
      "name": "balanceOf",
      "outputs": [
        {
          "internalType": "uint256",
          "name": "",
          "type": "uint256"
        }
      ],
      "stateMutability": "view",
      "type": "function"
    },
    {
      "inputs": [],
      "name": "enterRaffle",
      "outputs": [],
      "stateMutability": "payable",
      "type": "function"
    },
    {
      "inputs": [],
      "name": "entranceFee",
      "outputs": [
        {
          "internalType": "uint256",
          "name": "",
          "type": "uint256"
        }
      ],
      "stateMutability": "view",
      "type": "function"
    },
    {
      "inputs": [],
      "name": "finalGame",
      "outputs": [],
      "stateMutability": "nonpayable",
      "type": "function"
    },
    {
      "inputs": [
        {
          "internalType": "uint256",
          "name": "tokenId",
          "type": "uint256"
        }
      ],
      "name": "getApproved",
      "outputs": [
        {
          "internalType": "address",
          "name": "",
          "type": "address"
        }
      ],
      "stateMutability": "view",
      "type": "function"
    },
    {
      "inputs": [],
      "name": "getFinalGameSums",
      "outputs": [
        {
          "internalType": "uint256[20]",
          "name": "",
          "type": "uint256[20]"
        }
      ],
      "stateMutability": "view",
      "type": "function"
    },
    {
      "inputs": [
        {
          "internalType": "address",
          "name": "player",
          "type": "address"
        }
      ],
      "name": "getTicketSums",
      "outputs": [
        {
          "internalType": "uint256[]",
          "name": "",
          "type": "uint256[]"
        }
      ],
      "stateMutability": "view",
      "type": "function"
    },
    {
      "inputs": [],
      "name": "getTicketsLeft",
      "outputs": [
        {
          "internalType": "uint256[]",
          "name": "",
          "type": "uint256[]"
        }
      ],
      "stateMutability": "view",
      "type": "function"
    },
    {
      "inputs": [
        {
          "internalType": "uint256",
          "name": "sum",
          "type": "uint256"
        }
      ],
      "name": "getTicketsLeftBySum",
      "outputs": [
        {
          "internalType": "uint256",
          "name": "",
          "type": "uint256"
        }
      ],
      "stateMutability": "view",
      "type": "function"
    },
    {
      "inputs": [],
      "name": "getTopPlayers",
      "outputs": [
        {
          "internalType": "address[20]",
          "name": "",
          "type": "address[20]"
        }
      ],
      "stateMutability": "view",
      "type": "function"
    },
    {
      "inputs": [
        {
          "internalType": "uint256",
          "name": "sum",
          "type": "uint256"
        }
      ],
      "name": "getWinnersBySum",
      "outputs": [
        {
          "internalType": "address[]",
          "name": "",
          "type": "address[]"
        }
      ],
      "stateMutability": "view",
      "type": "function"
    },
    {
      "inputs": [
        {
          "internalType": "address",
          "name": "owner",
          "type": "address"
        },
        {
          "internalType": "address",
          "name": "operator",
          "type": "address"
        }
      ],
      "name": "isApprovedForAll",
      "outputs": [
        {
          "internalType": "bool",
          "name": "",
          "type": "bool"
        }
      ],
      "stateMutability": "view",
      "type": "function"
    },
    {
      "inputs": [],
      "name": "name",
      "outputs": [
        {
          "internalType": "string",
          "name": "",
          "type": "string"
        }
      ],
      "stateMutability": "view",
      "type": "function"
    },
    {
      "inputs": [],
      "name": "openRaffle",
      "outputs": [],
      "stateMutability": "nonpayable",
      "type": "function"
    },
    {
      "inputs": [],
      "name": "owner",
      "outputs": [
        {
          "internalType": "address",
          "name": "",
          "type": "address"
        }
      ],
      "stateMutability": "view",
      "type": "function"
    },
    {
      "inputs": [
        {
          "internalType": "uint256",
          "name": "tokenId",
          "type": "uint256"
        }
      ],
      "name": "ownerOf",
      "outputs": [
        {
          "internalType": "address",
          "name": "",
          "type": "address"
        }
      ],
      "stateMutability": "view",
      "type": "function"
    },
    {
      "inputs": [
        {
          "internalType": "address",
          "name": "target",
          "type": "address"
        },
        {
          "internalType": "uint256",
          "name": "amountInUsdt",
          "type": "uint256"
        }
      ],
      "name": "pay",
      "outputs": [],
      "stateMutability": "nonpayable",
      "type": "function"
    },
    {
      "inputs": [],
      "name": "renounceOwnership",
      "outputs": [],
      "stateMutability": "nonpayable",
      "type": "function"
    },
    {
      "inputs": [
        {
          "internalType": "address",
          "name": "from",
          "type": "address"
        },
        {
          "internalType": "address",
          "name": "to",
          "type": "address"
        },
        {
          "internalType": "uint256",
          "name": "tokenId",
          "type": "uint256"
        }
      ],
      "name": "safeTransferFrom",
      "outputs": [],
      "stateMutability": "nonpayable",
      "type": "function"
    },
    {
      "inputs": [
        {
          "internalType": "address",
          "name": "from",
          "type": "address"
        },
        {
          "internalType": "address",
          "name": "to",
          "type": "address"
        },
        {
          "internalType": "uint256",
          "name": "tokenId",
          "type": "uint256"
        },
        {
          "internalType": "bytes",
          "name": "data",
          "type": "bytes"
        }
      ],
      "name": "safeTransferFrom",
      "outputs": [],
      "stateMutability": "nonpayable",
      "type": "function"
    },
    {
      "inputs": [
        {
          "internalType": "address",
          "name": "operator",
          "type": "address"
        },
        {
          "internalType": "bool",
          "name": "approved",
          "type": "bool"
        }
      ],
      "name": "setApprovalForAll",
      "outputs": [],
      "stateMutability": "nonpayable",
      "type": "function"
    },
    {
      "inputs": [
        {
          "internalType": "uint256",
          "name": "newEntranceFee",
          "type": "uint256"
        }
      ],
      "name": "setEntranceFee",
      "outputs": [],
      "stateMutability": "nonpayable",
      "type": "function"
    },
    {
      "inputs": [],
      "name": "stopRaffle",
      "outputs": [],
      "stateMutability": "nonpayable",
      "type": "function"
    },
    {
      "inputs": [
        {
          "internalType": "uint256",
          "name": "",
          "type": "uint256"
        }
      ],
      "name": "sums",
      "outputs": [
        {
          "internalType": "uint256",
          "name": "",
          "type": "uint256"
        }
      ],
      "stateMutability": "view",
      "type": "function"
    },
    {
      "inputs": [
        {
          "internalType": "bytes4",
          "name": "interfaceId",
          "type": "bytes4"
        }
      ],
      "name": "supportsInterface",
      "outputs": [
        {
          "internalType": "bool",
          "name": "",
          "type": "bool"
        }
      ],
      "stateMutability": "view",
      "type": "function"
    },
    {
      "inputs": [],
      "name": "symbol",
      "outputs": [
        {
          "internalType": "string",
          "name": "",
          "type": "string"
        }
      ],
      "stateMutability": "view",
      "type": "function"
    },
    {
      "inputs": [],
      "name": "ticketNft",
      "outputs": [
        {
          "internalType": "contract Ticket",
          "name": "",
          "type": "address"
        }
      ],
      "stateMutability": "view",
      "type": "function"
    },
    {
      "inputs": [],
      "name": "ticketsLeft",
      "outputs": [
        {
          "internalType": "uint256",
          "name": "",
          "type": "uint256"
        }
      ],
      "stateMutability": "view",
      "type": "function"
    },
    {
      "inputs": [
        {
          "internalType": "uint256",
          "name": "tokenId",
          "type": "uint256"
        }
      ],
      "name": "tokenURI",
      "outputs": [
        {
          "internalType": "string",
          "name": "",
          "type": "string"
        }
      ],
      "stateMutability": "view",
      "type": "function"
    },
    {
      "inputs": [
        {
          "internalType": "address",
          "name": "from",
          "type": "address"
        },
        {
          "internalType": "address",
          "name": "to",
          "type": "address"
        },
        {
          "internalType": "uint256",
          "name": "tokenId",
          "type": "uint256"
        }
      ],
      "name": "transferFrom",
      "outputs": [],
      "stateMutability": "nonpayable",
      "type": "function"
    },
    {
      "inputs": [
        {
          "internalType": "address",
          "name": "newOwner",
          "type": "address"
        }
      ],
      "name": "transferOwnership",
      "outputs": [],
      "stateMutability": "nonpayable",
      "type": "function"
    },
    {
      "stateMutability": "payable",
      "type": "receive"
    }
  ],
  "bytecode": "0x6080604052604051806020016040528060008152506007908162000024919062000665565b5066d19c2ff9bf80006009553480156200003d57600080fd5b5060405162004f0138038062004f01833981810160405281019062000063919062000a00565b6040518060200160405280600081525060405180602001604052806000815250816000908162000094919062000665565b508060019081620000a6919062000665565b505050620000c9620000bd6200026760201b60201c565b6200026f60201b60201c565b83518551148015620000dd57506000855114155b6200011f576040517f08c379a0000000000000000000000000000000000000000000000000000000008152600401620001169062000b2a565b60405180910390fd5b81603960006101000a81548173ffffffffffffffffffffffffffffffffffffffff021916908373ffffffffffffffffffffffffffffffffffffffff16021790555083600c90805190602001906200017892919062000335565b5082600d9060146200018c92919062000387565b506000855190508067ffffffffffffffff811115620001b057620001af620003f6565b5b604051908082528060200260200182016040528015620001df5781602001602082028036833780820191505090505b50600b9080519060200190620001f792919062000335565b5085600b90805190602001906200021092919062000335565b50612a88600a8190555081600860006101000a81548173ffffffffffffffffffffffffffffffffffffffff021916908373ffffffffffffffffffffffffffffffffffffffff16021790555050505050505062000b4c565b600033905090565b6000600660009054906101000a900473ffffffffffffffffffffffffffffffffffffffff16905081600660006101000a81548173ffffffffffffffffffffffffffffffffffffffff021916908373ffffffffffffffffffffffffffffffffffffffff1602179055508173ffffffffffffffffffffffffffffffffffffffff168173ffffffffffffffffffffffffffffffffffffffff167f8be0079c531659141344cd1fd0a4f28419497f9722a3daafe3b4186f6b6457e060405160405180910390a35050565b82805482825590600052602060002090810192821562000374579160200282015b828111156200037357825182559160200191906001019062000356565b5b509050620003839190620003cc565b5090565b8260148101928215620003b9579160200282015b82811115620003b85782518255916020019190600101906200039b565b5b509050620003c89190620003cc565b5090565b5b80821115620003e7576000816000905550600101620003cd565b5090565b600081519050919050565b7f4e487b7100000000000000000000000000000000000000000000000000000000600052604160045260246000fd5b7f4e487b7100000000000000000000000000000000000000000000000000000000600052602260045260246000fd5b600060028204905060018216806200046d57607f821691505b60208210810362000483576200048262000425565b5b50919050565b60008190508160005260206000209050919050565b60006020601f8301049050919050565b600082821b905092915050565b600060088302620004ed7fffffffffffffffffffffffffffffffffffffffffffffffffffffffffffffffff82620004ae565b620004f98683620004ae565b95508019841693508086168417925050509392505050565b6000819050919050565b6000819050919050565b600062000546620005406200053a8462000511565b6200051b565b62000511565b9050919050565b6000819050919050565b620005628362000525565b6200057a62000571826200054d565b848454620004bb565b825550505050565b600090565b6200059162000582565b6200059e81848462000557565b505050565b5b81811015620005c657620005ba60008262000587565b600181019050620005a4565b5050565b601f8211156200061557620005df8162000489565b620005ea846200049e565b81016020851015620005fa578190505b6200061262000609856200049e565b830182620005a3565b50505b505050565b600082821c905092915050565b60006200063a600019846008026200061a565b1980831691505092915050565b600062000655838362000627565b9150826002028217905092915050565b6200067082620003eb565b67ffffffffffffffff8111156200068c576200068b620003f6565b5b62000698825462000454565b620006a5828285620005ca565b600060209050601f831160018114620006dd5760008415620006c8578287015190505b620006d4858262000647565b86555062000744565b601f198416620006ed8662000489565b60005b828110156200071757848901518255600182019150602085019450602081019050620006f0565b8683101562000737578489015162000733601f89168262000627565b8355505b6001600288020188555050505b505050505050565b6000604051905090565b600080fd5b600080fd5b600080fd5b6000601f19601f8301169050919050565b620007818262000765565b810181811067ffffffffffffffff82111715620007a357620007a2620003f6565b5b80604052505050565b6000620007b86200074c565b9050620007c6828262000776565b919050565b600067ffffffffffffffff821115620007e957620007e8620003f6565b5b602082029050602081019050919050565b600080fd5b6200080a8162000511565b81146200081657600080fd5b50565b6000815190506200082a81620007ff565b92915050565b6000620008476200084184620007cb565b620007ac565b905080838252602082019050602084028301858111156200086d576200086c620007fa565b5b835b818110156200089a578062000885888262000819565b8452602084019350506020810190506200086f565b5050509392505050565b600082601f830112620008bc57620008bb62000760565b5b8151620008ce84826020860162000830565b91505092915050565b600067ffffffffffffffff821115620008f557620008f4620003f6565b5b602082029050919050565b6000620009176200091184620008d7565b620007ac565b90508060208402830185811115620009345762000933620007fa565b5b835b818110156200096157806200094c888262000819565b84526020840193505060208101905062000936565b5050509392505050565b600082601f83011262000983576200098262000760565b5b60146200099284828562000900565b91505092915050565b600073ffffffffffffffffffffffffffffffffffffffff82169050919050565b6000620009c8826200099b565b9050919050565b620009da81620009bb565b8114620009e657600080fd5b50565b600081519050620009fa81620009cf565b92915050565b6000806000806000610300868803121562000a205762000a1f62000756565b5b600086015167ffffffffffffffff81111562000a415762000a406200075b565b5b62000a4f88828901620008a4565b955050602086015167ffffffffffffffff81111562000a735762000a726200075b565b5b62000a8188828901620008a4565b945050604062000a94888289016200096b565b9350506102c062000aa888828901620009e9565b9250506102e062000abc88828901620009e9565b9150509295509295909350565b600082825260208201905092915050565b7f526166666c65496d706c3a20696e76616c696420617267756d656e7473000000600082015250565b600062000b12601d8362000ac9565b915062000b1f8262000ada565b602082019050919050565b6000602082019050818103600083015262000b458162000b03565b9050919050565b6143a58062000b5c6000396000f3fe6080604052600436106101e75760003560e01c8063715018a611610102578063b68cf1d711610095578063e09b2a6211610064578063e09b2a62146106cc578063e985e9c5146106f7578063f2fde38b14610734578063fe56f5a01461075d576101ee565b8063b68cf1d714610600578063b88d4fde1461063d578063c407687614610666578063c87b56dd1461068f576101ee565b80638da5cb5b116100d15780638da5cb5b1461056a57806395d89b4114610595578063a22cb465146105c0578063b4ba7d36146105e9576101ee565b8063715018a6146104e6578063779a5157146104fd5780637dae059a1461052857806388e814e61461053f576101ee565b8063328169ad1161017a578063649677e111610149578063649677e114610416578063694c49be146104415780636cab5e5b1461047e57806370a08231146104a9576101ee565b8063328169ad1461036e57806342842e0e146103855780636352211e146103ae578063646f22c5146103eb576101ee565b80631f564a45116101b65780631f564a45146102c15780632077964f146102fe57806323b872dd1461033b5780632cfcc53914610364576101ee565b806301ffc9a7146101f357806306fdde0314610230578063081812fc1461025b578063095ea7b314610298576101ee565b366101ee57005b600080fd5b3480156101ff57600080fd5b5061021a60048036038101906102159190612cd0565b610786565b6040516102279190612d18565b60405180910390f35b34801561023c57600080fd5b50610245610868565b6040516102529190612dc3565b60405180910390f35b34801561026757600080fd5b50610282600480360381019061027d9190612e1b565b6108fa565b60405161028f9190612e89565b60405180910390f35b3480156102a457600080fd5b506102bf60048036038101906102ba9190612ed0565b610940565b005b3480156102cd57600080fd5b506102e860048036038101906102e39190612e1b565b610a57565b6040516102f59190612f1f565b60405180910390f35b34801561030a57600080fd5b5061032560048036038101906103209190612e1b565b610a7b565b6040516103329190612ff8565b60405180910390f35b34801561034757600080fd5b50610362600480360381019061035d919061301a565b610b1c565b005b61036c610b7c565b005b34801561037a57600080fd5b50610383610e41565b005b34801561039157600080fd5b506103ac60048036038101906103a7919061301a565b610fd4565b005b3480156103ba57600080fd5b506103d560048036038101906103d09190612e1b565b610ff4565b6040516103e29190612e89565b60405180910390f35b3480156103f757600080fd5b5061040061107a565b60405161040d919061312b565b60405180910390f35b34801561042257600080fd5b5061042b6110d2565b6040516104389190612f1f565b60405180910390f35b34801561044d57600080fd5b5061046860048036038101906104639190612e1b565b6110d8565b6040516104759190612f1f565b60405180910390f35b34801561048a57600080fd5b50610493611157565b6040516104a09190612f1f565b60405180910390f35b3480156104b557600080fd5b506104d060048036038101906104cb919061314d565b61115d565b6040516104dd9190612f1f565b60405180910390f35b3480156104f257600080fd5b506104fb611214565b005b34801561050957600080fd5b50610512611228565b60405161051f91906131fe565b60405180910390f35b34801561053457600080fd5b5061053d611273565b005b34801561054b57600080fd5b50610554611298565b604051610561919061329e565b60405180910390f35b34801561057657600080fd5b5061057f611319565b60405161058c9190612e89565b60405180910390f35b3480156105a157600080fd5b506105aa611343565b6040516105b79190612dc3565b60405180910390f35b3480156105cc57600080fd5b506105e760048036038101906105e291906132e6565b6113d5565b005b3480156105f557600080fd5b506105fe6113eb565b005b34801561060c57600080fd5b506106276004803603810190610622919061314d565b611410565b604051610634919061312b565b60405180910390f35b34801561064957600080fd5b50610664600480360381019061065f919061345b565b611686565b005b34801561067257600080fd5b5061068d60048036038101906106889190612ed0565b6116e8565b005b34801561069b57600080fd5b506106b660048036038101906106b19190612e1b565b61184c565b6040516106c39190612dc3565b60405180910390f35b3480156106d857600080fd5b506106e1611878565b6040516106ee919061353d565b60405180910390f35b34801561070357600080fd5b5061071e60048036038101906107199190613558565b61189e565b60405161072b9190612d18565b60405180910390f35b34801561074057600080fd5b5061075b6004803603810190610756919061314d565b611932565b005b34801561076957600080fd5b50610784600480360381019061077f9190612e1b565b6119b5565b005b60007f80ac58cd000000000000000000000000000000000000000000000000000000007bffffffffffffffffffffffffffffffffffffffffffffffffffffffff1916827bffffffffffffffffffffffffffffffffffffffffffffffffffffffff1916148061085157507f5b5e139f000000000000000000000000000000000000000000000000000000007bffffffffffffffffffffffffffffffffffffffffffffffffffffffff1916827bffffffffffffffffffffffffffffffffffffffffffffffffffffffff1916145b806108615750610860826119c7565b5b9050919050565b606060008054610877906135c7565b80601f01602080910402602001604051908101604052809291908181526020018280546108a3906135c7565b80156108f05780601f106108c5576101008083540402835291602001916108f0565b820191906000526020600020905b8154815290600101906020018083116108d357829003601f168201915b5050505050905090565b600061090582611a31565b6004600083815260200190815260200160002060009054906101000a900473ffffffffffffffffffffffffffffffffffffffff169050919050565b600061094b82610ff4565b90508073ffffffffffffffffffffffffffffffffffffffff168373ffffffffffffffffffffffffffffffffffffffff16036109bb576040517f08c379a00000000000000000000000000000000000000000000000000000000081526004016109b29061366a565b60405180910390fd5b8073ffffffffffffffffffffffffffffffffffffffff166109da611a7c565b73ffffffffffffffffffffffffffffffffffffffff161480610a095750610a0881610a03611a7c565b61189e565b5b610a48576040517f08c379a0000000000000000000000000000000000000000000000000000000008152600401610a3f906136fc565b60405180910390fd5b610a528383611a84565b505050565b600c8181548110610a6757600080fd5b906000526020600020016000915090505481565b606060246000838152602001908152602001600020805480602002602001604051908101604052809291908181526020018280548015610b1057602002820191906000526020600020905b8160009054906101000a900473ffffffffffffffffffffffffffffffffffffffff1673ffffffffffffffffffffffffffffffffffffffff1681526020019060010190808311610ac6575b50505050509050919050565b610b2d610b27611a7c565b82611b3d565b610b6c576040517f08c379a0000000000000000000000000000000000000000000000000000000008152600401610b639061378e565b60405180910390fd5b610b77838383611bd2565b505050565b602160009054906101000a900460ff16610bcb576040517f08c379a0000000000000000000000000000000000000000000000000000000008152600401610bc2906137fa565b60405180910390fd5b600954341015610c10576040517f08c379a0000000000000000000000000000000000000000000000000000000008152600401610c0790613866565b60405180910390fd5b6000600a5411610c55576040517f08c379a0000000000000000000000000000000000000000000000000000000008152600401610c4c906138d2565b60405180910390fd5b6001600a6000828254610c689190613921565b92505081905550602260008154610c7e90613955565b91905081905550600033602254600143610c989190613921565b40604051602001610cab939291906139b6565b6040516020818303038152906040528051906020012060001c90506000600b6001600b80549050610cdc9190613921565b81548110610ced57610cec6139ed565b5b90600052602060002001549050600060018284610d0a9190613a4b565b610d149190613a7c565b90506000610d2182611ecb565b90506000600c8281548110610d3957610d386139ed565b5b906000526020600020015490506000600860009054906101000a900473ffffffffffffffffffffffffffffffffffffffff1673ffffffffffffffffffffffffffffffffffffffff1663a144819433846040518363ffffffff1660e01b8152600401610da5929190613ab0565b6020604051808303816000875af1158015610dc4573d6000803e3d6000fd5b505050506040513d601f19601f82011682018060405250810190610de89190613aee565b905080823373ffffffffffffffffffffffffffffffffffffffff167f583f2b104ddadb04015734001b634e73a2cd12f3beccb23ad14d2df0ab279dcf60405160405180910390a4610e393383611fcb565b505050505050565b610e496120aa565b600033602254600143610e5c9190613921565b40604051602001610e6f939291906139b6565b6040516020818303038152906040528051906020012060001c90506000610e9582612128565b905060005b6014811015610fcf57600073ffffffffffffffffffffffffffffffffffffffff16828260148110610ece57610ecd6139ed565b5b602002015173ffffffffffffffffffffffffffffffffffffffff1614610fbc57600860009054906101000a900473ffffffffffffffffffffffffffffffffffffffff1673ffffffffffffffffffffffffffffffffffffffff1663a1448194838360148110610f3f57610f3e6139ed565b5b6020020151600d8460148110610f5857610f576139ed565b5b01546040518363ffffffff1660e01b8152600401610f77929190613ab0565b6020604051808303816000875af1158015610f96573d6000803e3d6000fd5b505050506040513d601f19601f82011682018060405250810190610fba9190613aee565b505b8080610fc790613955565b915050610e9a565b505050565b610fef83838360405180602001604052806000815250611686565b505050565b600080611000836121ff565b9050600073ffffffffffffffffffffffffffffffffffffffff168173ffffffffffffffffffffffffffffffffffffffff1603611071576040517f08c379a000000000000000000000000000000000000000000000000000000000815260040161106890613b67565b60405180910390fd5b80915050919050565b6060600b8054806020026020016040519081016040528092919081815260200182805480156110c857602002820191906000526020600020905b8154815260200190600101908083116110b4575b5050505050905090565b60095481565b600080600090505b600c8054905081101561114c5782600c8281548110611102576111016139ed565b5b90600052602060002001540361113957600b8181548110611126576111256139ed565b5b9060005260206000200154915050611152565b808061114490613955565b9150506110e0565b50600090505b919050565b600a5481565b60008073ffffffffffffffffffffffffffffffffffffffff168273ffffffffffffffffffffffffffffffffffffffff16036111cd576040517f08c379a00000000000000000000000000000000000000000000000000000000081526004016111c490613bf9565b60405180910390fd5b600360008373ffffffffffffffffffffffffffffffffffffffff1673ffffffffffffffffffffffffffffffffffffffff168152602001908152602001600020549050919050565b61121c6120aa565b611226600061223c565b565b611230612b84565b600d601480602002604051908101604052809291908260148015611269576020028201915b815481526020019060010190808311611255575b5050505050905090565b61127b6120aa565b6000602160006101000a81548160ff021916908315150217905550565b6112a0612ba7565b602560148060200260405190810160405280929190826014801561130f576020028201915b8160009054906101000a900473ffffffffffffffffffffffffffffffffffffffff1673ffffffffffffffffffffffffffffffffffffffff16815260200190600101908083116112c5575b5050505050905090565b6000600660009054906101000a900473ffffffffffffffffffffffffffffffffffffffff16905090565b606060018054611352906135c7565b80601f016020809104026020016040519081016040528092919081815260200182805461137e906135c7565b80156113cb5780601f106113a0576101008083540402835291602001916113cb565b820191906000526020600020905b8154815290600101906020018083116113ae57829003601f168201915b5050505050905090565b6113e76113e0611a7c565b8383612302565b5050565b6113f36120aa565b6001602160006101000a81548160ff021916908315150217905550565b60606000600860009054906101000a900473ffffffffffffffffffffffffffffffffffffffff1673ffffffffffffffffffffffffffffffffffffffff166370a08231846040518263ffffffff1660e01b815260040161146f9190612e89565b602060405180830381865afa15801561148c573d6000803e3d6000fd5b505050506040513d601f19601f820116820180604052508101906114b09190613aee565b905060008167ffffffffffffffff8111156114ce576114cd613330565b5b6040519080825280602002602001820160405280156114fc5781602001602082028036833780820191505090505b50905060005b8281101561167b576000600860009054906101000a900473ffffffffffffffffffffffffffffffffffffffff1673ffffffffffffffffffffffffffffffffffffffff16632f745c5987846040518363ffffffff1660e01b8152600401611569929190613ab0565b602060405180830381865afa158015611586573d6000803e3d6000fd5b505050506040513d601f19601f820116820180604052508101906115aa9190613aee565b9050600860009054906101000a900473ffffffffffffffffffffffffffffffffffffffff1673ffffffffffffffffffffffffffffffffffffffff1663188b85b4826040518263ffffffff1660e01b81526004016116079190612f1f565b602060405180830381865afa158015611624573d6000803e3d6000fd5b505050506040513d601f19601f820116820180604052508101906116489190613aee565b83838151811061165b5761165a6139ed565b5b60200260200101818152505050808061167390613955565b915050611502565b508092505050919050565b611697611691611a7c565b83611b3d565b6116d6576040517f08c379a00000000000000000000000000000000000000000000000000000000081526004016116cd9061378e565b60405180910390fd5b6116e28484848461246e565b50505050565b6116f06120aa565b6000603960009054906101000a900473ffffffffffffffffffffffffffffffffffffffff1673ffffffffffffffffffffffffffffffffffffffff1663feaf968c6040518163ffffffff1660e01b815260040160a060405180830381865afa15801561175f573d6000803e3d6000fd5b505050506040513d601f19601f820116820180604052508101906117839190613c91565b505050915050600081836117979190613d0c565b905060008473ffffffffffffffffffffffffffffffffffffffff16826040516117bf90613d7f565b60006040518083038185875af1925050503d80600081146117fc576040519150601f19603f3d011682016040523d82523d6000602084013e611801565b606091505b5050905080611845576040517f08c379a000000000000000000000000000000000000000000000000000000000815260040161183c90613de0565b60405180910390fd5b5050505050565b6060600782604051602001611862929190613f10565b6040516020818303038152906040529050919050565b600860009054906101000a900473ffffffffffffffffffffffffffffffffffffffff1681565b6000600560008473ffffffffffffffffffffffffffffffffffffffff1673ffffffffffffffffffffffffffffffffffffffff16815260200190815260200160002060008373ffffffffffffffffffffffffffffffffffffffff1673ffffffffffffffffffffffffffffffffffffffff16815260200190815260200160002060009054906101000a900460ff16905092915050565b61193a6120aa565b600073ffffffffffffffffffffffffffffffffffffffff168173ffffffffffffffffffffffffffffffffffffffff16036119a9576040517f08c379a00000000000000000000000000000000000000000000000000000000081526004016119a090613fb5565b60405180910390fd5b6119b28161223c565b50565b6119bd6120aa565b8060098190555050565b60007f01ffc9a7000000000000000000000000000000000000000000000000000000007bffffffffffffffffffffffffffffffffffffffffffffffffffffffff1916827bffffffffffffffffffffffffffffffffffffffffffffffffffffffff1916149050919050565b611a3a816124ca565b611a79576040517f08c379a0000000000000000000000000000000000000000000000000000000008152600401611a7090613b67565b60405180910390fd5b50565b600033905090565b816004600083815260200190815260200160002060006101000a81548173ffffffffffffffffffffffffffffffffffffffff021916908373ffffffffffffffffffffffffffffffffffffffff160217905550808273ffffffffffffffffffffffffffffffffffffffff16611af783610ff4565b73ffffffffffffffffffffffffffffffffffffffff167f8c5be1e5ebec7d5bd14f71427d1e84f3dd0314c0f7b2291e5b200ac8c7c3b92560405160405180910390a45050565b600080611b4983610ff4565b90508073ffffffffffffffffffffffffffffffffffffffff168473ffffffffffffffffffffffffffffffffffffffff161480611b8b5750611b8a818561189e565b5b80611bc957508373ffffffffffffffffffffffffffffffffffffffff16611bb1846108fa565b73ffffffffffffffffffffffffffffffffffffffff16145b91505092915050565b8273ffffffffffffffffffffffffffffffffffffffff16611bf282610ff4565b73ffffffffffffffffffffffffffffffffffffffff1614611c48576040517f08c379a0000000000000000000000000000000000000000000000000000000008152600401611c3f90614047565b60405180910390fd5b600073ffffffffffffffffffffffffffffffffffffffff168273ffffffffffffffffffffffffffffffffffffffff1603611cb7576040517f08c379a0000000000000000000000000000000000000000000000000000000008152600401611cae906140d9565b60405180910390fd5b611cc4838383600161250b565b8273ffffffffffffffffffffffffffffffffffffffff16611ce482610ff4565b73ffffffffffffffffffffffffffffffffffffffff1614611d3a576040517f08c379a0000000000000000000000000000000000000000000000000000000008152600401611d3190614047565b60405180910390fd5b6004600082815260200190815260200160002060006101000a81549073ffffffffffffffffffffffffffffffffffffffff02191690556001600360008573ffffffffffffffffffffffffffffffffffffffff1673ffffffffffffffffffffffffffffffffffffffff168152602001908152602001600020600082825403925050819055506001600360008473ffffffffffffffffffffffffffffffffffffffff1673ffffffffffffffffffffffffffffffffffffffff16815260200190815260200160002060008282540192505081905550816002600083815260200190815260200160002060006101000a81548173ffffffffffffffffffffffffffffffffffffffff021916908373ffffffffffffffffffffffffffffffffffffffff160217905550808273ffffffffffffffffffffffffffffffffffffffff168473ffffffffffffffffffffffffffffffffffffffff167fddf252ad1be2c89b69c2b068fc378daa952ba7f163c4a11628f55a4df523b3ef60405160405180910390a4611ec68383836001612631565b505050565b600080600b8054905090506000600182611ee59190613921565b905060005b82811015611fc0576000600b8281548110611f0857611f076139ed565b5b90600052602060002001540315611fad5784600b8281548110611f2e57611f2d6139ed565b5b90600052602060002001541015611f7057600b8181548110611f5357611f526139ed565b5b906000526020600020015485611f699190613921565b9450611fac565b809150600b8181548110611f8757611f866139ed565b5b906000526020600020016000815480929190611fa2906140f9565b9190505550611fc0565b5b8080611fb890613955565b915050611eea565b508092505050919050565b60246000828152602001908152602001600020829080600181540180825580915050600190039060005260206000200160009091909190916101000a81548173ffffffffffffffffffffffffffffffffffffffff021916908373ffffffffffffffffffffffffffffffffffffffff160217905550600081036120a657602360008373ffffffffffffffffffffffffffffffffffffffff1673ffffffffffffffffffffffffffffffffffffffff168152602001908152602001600020600081548092919061209790613955565b91905055506120a582612637565b5b5050565b6120b2611a7c565b73ffffffffffffffffffffffffffffffffffffffff166120d0611319565b73ffffffffffffffffffffffffffffffffffffffff1614612126576040517f08c379a000000000000000000000000000000000000000000000000000000000815260040161211d9061416e565b60405180910390fd5b565b612130612ba7565b600060148361213f9190613a4b565b905060005b601481146121f857602581601481106121605761215f6139ed565b5b0160009054906101000a900473ffffffffffffffffffffffffffffffffffffffff16838360148110612195576121946139ed565b5b602002019073ffffffffffffffffffffffffffffffffffffffff16908173ffffffffffffffffffffffffffffffffffffffff168152505060146001836121db9190613a7c565b6121e59190613a4b565b9150806121f190613955565b9050612144565b5050919050565b60006002600083815260200190815260200160002060009054906101000a900473ffffffffffffffffffffffffffffffffffffffff169050919050565b6000600660009054906101000a900473ffffffffffffffffffffffffffffffffffffffff16905081600660006101000a81548173ffffffffffffffffffffffffffffffffffffffff021916908373ffffffffffffffffffffffffffffffffffffffff1602179055508173ffffffffffffffffffffffffffffffffffffffff168173ffffffffffffffffffffffffffffffffffffffff167f8be0079c531659141344cd1fd0a4f28419497f9722a3daafe3b4186f6b6457e060405160405180910390a35050565b8173ffffffffffffffffffffffffffffffffffffffff168373ffffffffffffffffffffffffffffffffffffffff1603612370576040517f08c379a0000000000000000000000000000000000000000000000000000000008152600401612367906141da565b60405180910390fd5b80600560008573ffffffffffffffffffffffffffffffffffffffff1673ffffffffffffffffffffffffffffffffffffffff16815260200190815260200160002060008473ffffffffffffffffffffffffffffffffffffffff1673ffffffffffffffffffffffffffffffffffffffff16815260200190815260200160002060006101000a81548160ff0219169083151502179055508173ffffffffffffffffffffffffffffffffffffffff168373ffffffffffffffffffffffffffffffffffffffff167f17307eab39ab6107e8899845ad3d59bd9653f200f220920489ca2b5937696c31836040516124619190612d18565b60405180910390a3505050565b612479848484611bd2565b6124858484848461277a565b6124c4576040517f08c379a00000000000000000000000000000000000000000000000000000000081526004016124bb9061426c565b60405180910390fd5b50505050565b60008073ffffffffffffffffffffffffffffffffffffffff166124ec836121ff565b73ffffffffffffffffffffffffffffffffffffffff1614159050919050565b600181111561262b57600073ffffffffffffffffffffffffffffffffffffffff168473ffffffffffffffffffffffffffffffffffffffff161461259f5780600360008673ffffffffffffffffffffffffffffffffffffffff1673ffffffffffffffffffffffffffffffffffffffff16815260200190815260200160002060008282546125979190613921565b925050819055505b600073ffffffffffffffffffffffffffffffffffffffff168373ffffffffffffffffffffffffffffffffffffffff161461262a5780600360008573ffffffffffffffffffffffffffffffffffffffff1673ffffffffffffffffffffffffffffffffffffffff16815260200190815260200160002060008282546126229190613a7c565b925050819055505b5b50505050565b50505050565b6000602360008373ffffffffffffffffffffffffffffffffffffffff1673ffffffffffffffffffffffffffffffffffffffff1681526020019081526020016000205490506000602360006025601360148110612696576126956139ed565b5b0160009054906101000a900473ffffffffffffffffffffffffffffffffffffffff1673ffffffffffffffffffffffffffffffffffffffff1673ffffffffffffffffffffffffffffffffffffffff168152602001908152602001600020549050808211612703575050612777565b6001816127109190613a7c565b820361276c5782602560136014811061272c5761272b6139ed565b5b0160006101000a81548173ffffffffffffffffffffffffffffffffffffffff021916908373ffffffffffffffffffffffffffffffffffffffff1602179055505b612774612901565b50505b50565b600061279b8473ffffffffffffffffffffffffffffffffffffffff16612b61565b156128f4578373ffffffffffffffffffffffffffffffffffffffff1663150b7a026127c4611a7c565b8786866040518563ffffffff1660e01b81526004016127e694939291906142e1565b6020604051808303816000875af192505050801561282257506040513d601f19601f8201168201806040525081019061281f9190614342565b60015b6128a4573d8060008114612852576040519150601f19603f3d011682016040523d82523d6000602084013e612857565b606091505b50600081510361289c576040517f08c379a00000000000000000000000000000000000000000000000000000000081526004016128939061426c565b60405180910390fd5b805181602001fd5b63150b7a0260e01b7bffffffffffffffffffffffffffffffffffffffffffffffffffffffff1916817bffffffffffffffffffffffffffffffffffffffffffffffffffffffff1916149150506128f9565b600190505b949350505050565b60006025601480602002604051908101604052809291908260148015612972576020028201915b8160009054906101000a900473ffffffffffffffffffffffffffffffffffffffff1673ffffffffffffffffffffffffffffffffffffffff1681526020019060010190808311612928575b505050505090506000601390505b6000811115612b4b576000602360008460018561299d9190613921565b601481106129ae576129ad6139ed565b5b602002015173ffffffffffffffffffffffffffffffffffffffff1673ffffffffffffffffffffffffffffffffffffffff168152602001908152602001600020549050600060236000858560148110612a0957612a086139ed565b5b602002015173ffffffffffffffffffffffffffffffffffffffff1673ffffffffffffffffffffffffffffffffffffffff16815260200190815260200160002054905081811115612b36576000848460148110612a6857612a676139ed565b5b6020020151905084600185612a7d9190613921565b60148110612a8e57612a8d6139ed565b5b6020020151858560148110612aa657612aa56139ed565b5b602002019073ffffffffffffffffffffffffffffffffffffffff16908173ffffffffffffffffffffffffffffffffffffffff16815250508085600186612aec9190613921565b60148110612afd57612afc6139ed565b5b602002019073ffffffffffffffffffffffffffffffffffffffff16908173ffffffffffffffffffffffffffffffffffffffff1681525050505b50508080612b43906140f9565b915050612980565b50806025906014612b5d929190612bca565b5050565b6000808273ffffffffffffffffffffffffffffffffffffffff163b119050919050565b604051806102800160405280601490602082028036833780820191505090505090565b604051806102800160405280601490602082028036833780820191505090505090565b8260148101928215612c36579160200282015b82811115612c355782518260006101000a81548173ffffffffffffffffffffffffffffffffffffffff021916908373ffffffffffffffffffffffffffffffffffffffff16021790555091602001919060010190612bdd565b5b509050612c439190612c47565b5090565b5b80821115612c60576000816000905550600101612c48565b5090565b6000604051905090565b600080fd5b600080fd5b60007fffffffff0000000000000000000000000000000000000000000000000000000082169050919050565b612cad81612c78565b8114612cb857600080fd5b50565b600081359050612cca81612ca4565b92915050565b600060208284031215612ce657612ce5612c6e565b5b6000612cf484828501612cbb565b91505092915050565b60008115159050919050565b612d1281612cfd565b82525050565b6000602082019050612d2d6000830184612d09565b92915050565b600081519050919050565b600082825260208201905092915050565b60005b83811015612d6d578082015181840152602081019050612d52565b60008484015250505050565b6000601f19601f8301169050919050565b6000612d9582612d33565b612d9f8185612d3e565b9350612daf818560208601612d4f565b612db881612d79565b840191505092915050565b60006020820190508181036000830152612ddd8184612d8a565b905092915050565b6000819050919050565b612df881612de5565b8114612e0357600080fd5b50565b600081359050612e1581612def565b92915050565b600060208284031215612e3157612e30612c6e565b5b6000612e3f84828501612e06565b91505092915050565b600073ffffffffffffffffffffffffffffffffffffffff82169050919050565b6000612e7382612e48565b9050919050565b612e8381612e68565b82525050565b6000602082019050612e9e6000830184612e7a565b92915050565b612ead81612e68565b8114612eb857600080fd5b50565b600081359050612eca81612ea4565b92915050565b60008060408385031215612ee757612ee6612c6e565b5b6000612ef585828601612ebb565b9250506020612f0685828601612e06565b9150509250929050565b612f1981612de5565b82525050565b6000602082019050612f346000830184612f10565b92915050565b600081519050919050565b600082825260208201905092915050565b6000819050602082019050919050565b612f6f81612e68565b82525050565b6000612f818383612f66565b60208301905092915050565b6000602082019050919050565b6000612fa582612f3a565b612faf8185612f45565b9350612fba83612f56565b8060005b83811015612feb578151612fd28882612f75565b9750612fdd83612f8d565b925050600181019050612fbe565b5085935050505092915050565b600060208201905081810360008301526130128184612f9a565b905092915050565b60008060006060848603121561303357613032612c6e565b5b600061304186828701612ebb565b935050602061305286828701612ebb565b925050604061306386828701612e06565b9150509250925092565b600081519050919050565b600082825260208201905092915050565b6000819050602082019050919050565b6130a281612de5565b82525050565b60006130b48383613099565b60208301905092915050565b6000602082019050919050565b60006130d88261306d565b6130e28185613078565b93506130ed83613089565b8060005b8381101561311e57815161310588826130a8565b9750613110836130c0565b9250506001810190506130f1565b5085935050505092915050565b6000602082019050818103600083015261314581846130cd565b905092915050565b60006020828403121561316357613162612c6e565b5b600061317184828501612ebb565b91505092915050565b600060149050919050565b600081905092915050565b6000819050919050565b6000602082019050919050565b6131b08161317a565b6131ba8184613185565b92506131c582613190565b8060005b838110156131f65781516131dd87826130a8565b96506131e88361319a565b9250506001810190506131c9565b505050505050565b60006102808201905061321460008301846131a7565b92915050565b600060149050919050565b600081905092915050565b6000819050919050565b6000602082019050919050565b6132508161321a565b61325a8184613225565b925061326582613230565b8060005b8381101561329657815161327d8782612f75565b96506132888361323a565b925050600181019050613269565b505050505050565b6000610280820190506132b46000830184613247565b92915050565b6132c381612cfd565b81146132ce57600080fd5b50565b6000813590506132e0816132ba565b92915050565b600080604083850312156132fd576132fc612c6e565b5b600061330b85828601612ebb565b925050602061331c858286016132d1565b9150509250929050565b600080fd5b600080fd5b7f4e487b7100000000000000000000000000000000000000000000000000000000600052604160045260246000fd5b61336882612d79565b810181811067ffffffffffffffff8211171561338757613386613330565b5b80604052505050565b600061339a612c64565b90506133a6828261335f565b919050565b600067ffffffffffffffff8211156133c6576133c5613330565b5b6133cf82612d79565b9050602081019050919050565b82818337600083830152505050565b60006133fe6133f9846133ab565b613390565b90508281526020810184848401111561341a5761341961332b565b5b6134258482856133dc565b509392505050565b600082601f83011261344257613441613326565b5b81356134528482602086016133eb565b91505092915050565b6000806000806080858703121561347557613474612c6e565b5b600061348387828801612ebb565b945050602061349487828801612ebb565b93505060406134a587828801612e06565b925050606085013567ffffffffffffffff8111156134c6576134c5612c73565b5b6134d28782880161342d565b91505092959194509250565b6000819050919050565b60006135036134fe6134f984612e48565b6134de565b612e48565b9050919050565b6000613515826134e8565b9050919050565b60006135278261350a565b9050919050565b6135378161351c565b82525050565b6000602082019050613552600083018461352e565b92915050565b6000806040838503121561356f5761356e612c6e565b5b600061357d85828601612ebb565b925050602061358e85828601612ebb565b9150509250929050565b7f4e487b7100000000000000000000000000000000000000000000000000000000600052602260045260246000fd5b600060028204905060018216806135df57607f821691505b6020821081036135f2576135f1613598565b5b50919050565b7f4552433732313a20617070726f76616c20746f2063757272656e74206f776e6560008201527f7200000000000000000000000000000000000000000000000000000000000000602082015250565b6000613654602183612d3e565b915061365f826135f8565b604082019050919050565b6000602082019050818103600083015261368381613647565b9050919050565b7f4552433732313a20617070726f76652063616c6c6572206973206e6f7420746f60008201527f6b656e206f776e6572206f7220617070726f76656420666f7220616c6c000000602082015250565b60006136e6603d83612d3e565b91506136f18261368a565b604082019050919050565b60006020820190508181036000830152613715816136d9565b9050919050565b7f4552433732313a2063616c6c6572206973206e6f7420746f6b656e206f776e6560008201527f72206f7220617070726f76656400000000000000000000000000000000000000602082015250565b6000613778602d83612d3e565b91506137838261371c565b604082019050919050565b600060208201905081810360008301526137a78161376b565b9050919050565b7f526166666c65496d706c3a20726166666c6520697320636c6f73656400000000600082015250565b60006137e4601c83612d3e565b91506137ef826137ae565b602082019050919050565b60006020820190508181036000830152613813816137d7565b9050919050565b7f526166666c653a206e6f7420656e6f7567682065746865722073656e74000000600082015250565b6000613850601d83612d3e565b915061385b8261381a565b602082019050919050565b6000602082019050818103600083015261387f81613843565b9050919050565b7f526166666c653a20416c6c20706f736974696f6e732061726520636c6f736564600082015250565b60006138bc602083612d3e565b91506138c782613886565b602082019050919050565b600060208201905081810360008301526138eb816138af565b9050919050565b7f4e487b7100000000000000000000000000000000000000000000000000000000600052601160045260246000fd5b600061392c82612de5565b915061393783612de5565b925082820390508181111561394f5761394e6138f2565b5b92915050565b600061396082612de5565b91507fffffffffffffffffffffffffffffffffffffffffffffffffffffffffffffffff8203613992576139916138f2565b5b600182019050919050565b6000819050919050565b6139b08161399d565b82525050565b60006060820190506139cb6000830186612e7a565b6139d86020830185612f10565b6139e560408301846139a7565b949350505050565b7f4e487b7100000000000000000000000000000000000000000000000000000000600052603260045260246000fd5b7f4e487b7100000000000000000000000000000000000000000000000000000000600052601260045260246000fd5b6000613a5682612de5565b9150613a6183612de5565b925082613a7157613a70613a1c565b5b828206905092915050565b6000613a8782612de5565b9150613a9283612de5565b9250828201905080821115613aaa57613aa96138f2565b5b92915050565b6000604082019050613ac56000830185612e7a565b613ad26020830184612f10565b9392505050565b600081519050613ae881612def565b92915050565b600060208284031215613b0457613b03612c6e565b5b6000613b1284828501613ad9565b91505092915050565b7f4552433732313a20696e76616c696420746f6b656e2049440000000000000000600082015250565b6000613b51601883612d3e565b9150613b5c82613b1b565b602082019050919050565b60006020820190508181036000830152613b8081613b44565b9050919050565b7f4552433732313a2061646472657373207a65726f206973206e6f74206120766160008201527f6c6964206f776e65720000000000000000000000000000000000000000000000602082015250565b6000613be3602983612d3e565b9150613bee82613b87565b604082019050919050565b60006020820190508181036000830152613c1281613bd6565b9050919050565b600069ffffffffffffffffffff82169050919050565b613c3881613c19565b8114613c4357600080fd5b50565b600081519050613c5581613c2f565b92915050565b6000819050919050565b613c6e81613c5b565b8114613c7957600080fd5b50565b600081519050613c8b81613c65565b92915050565b600080600080600060a08688031215613cad57613cac612c6e565b5b6000613cbb88828901613c46565b9550506020613ccc88828901613c7c565b9450506040613cdd88828901613ad9565b9350506060613cee88828901613ad9565b9250506080613cff88828901613c46565b9150509295509295909350565b6000613d1782612de5565b9150613d2283612de5565b9250828202613d3081612de5565b91508282048414831517613d4757613d466138f2565b5b5092915050565b600081905092915050565b50565b6000613d69600083613d4e565b9150613d7482613d59565b600082019050919050565b6000613d8a82613d5c565b9150819050919050565b7f526166666c65496d706c3a205472616e73666572206661696c65640000000000600082015250565b6000613dca601b83612d3e565b9150613dd582613d94565b602082019050919050565b60006020820190508181036000830152613df981613dbd565b9050919050565b600081905092915050565b60008190508160005260206000209050919050565b60008154613e2d816135c7565b613e378186613e00565b94506001821660008114613e525760018114613e6757613e9a565b60ff1983168652811515820286019350613e9a565b613e7085613e0b565b60005b83811015613e9257815481890152600182019150602081019050613e73565b838801955050505b50505092915050565b6000819050919050565b613ebe613eb982612de5565b613ea3565b82525050565b7f2e6a736f6e000000000000000000000000000000000000000000000000000000600082015250565b6000613efa600583613e00565b9150613f0582613ec4565b600582019050919050565b6000613f1c8285613e20565b9150613f288284613ead565b602082019150613f3782613eed565b91508190509392505050565b7f4f776e61626c653a206e6577206f776e657220697320746865207a65726f206160008201527f6464726573730000000000000000000000000000000000000000000000000000602082015250565b6000613f9f602683612d3e565b9150613faa82613f43565b604082019050919050565b60006020820190508181036000830152613fce81613f92565b9050919050565b7f4552433732313a207472616e736665722066726f6d20696e636f72726563742060008201527f6f776e6572000000000000000000000000000000000000000000000000000000602082015250565b6000614031602583612d3e565b915061403c82613fd5565b604082019050919050565b6000602082019050818103600083015261406081614024565b9050919050565b7f4552433732313a207472616e7366657220746f20746865207a65726f2061646460008201527f7265737300000000000000000000000000000000000000000000000000000000602082015250565b60006140c3602483612d3e565b91506140ce82614067565b604082019050919050565b600060208201905081810360008301526140f2816140b6565b9050919050565b600061410482612de5565b915060008203614117576141166138f2565b5b600182039050919050565b7f4f776e61626c653a2063616c6c6572206973206e6f7420746865206f776e6572600082015250565b6000614158602083612d3e565b915061416382614122565b602082019050919050565b600060208201905081810360008301526141878161414b565b9050919050565b7f4552433732313a20617070726f766520746f2063616c6c657200000000000000600082015250565b60006141c4601983612d3e565b91506141cf8261418e565b602082019050919050565b600060208201905081810360008301526141f3816141b7565b9050919050565b7f4552433732313a207472616e7366657220746f206e6f6e20455243373231526560008201527f63656976657220696d706c656d656e7465720000000000000000000000000000602082015250565b6000614256603283612d3e565b9150614261826141fa565b604082019050919050565b6000602082019050818103600083015261428581614249565b9050919050565b600081519050919050565b600082825260208201905092915050565b60006142b38261428c565b6142bd8185614297565b93506142cd818560208601612d4f565b6142d681612d79565b840191505092915050565b60006080820190506142f66000830187612e7a565b6143036020830186612e7a565b6143106040830185612f10565b818103606083015261432281846142a8565b905095945050505050565b60008151905061433c81612ca4565b92915050565b60006020828403121561435857614357612c6e565b5b60006143668482850161432d565b9150509291505056fea2646970667358221220ef9539729f097bce4d2da087861b9c2d65de0fe981a5e7b95cd88093e78e575e64736f6c63430008110033",
  "linkReferences": {},
  "deployedLinkReferences": {}
}