{
  "_format": "hh-sol-artifact-1",
  "contractName": "RaffleImpl",
  "sourceName": "contracts/RaffleImpl.sol",
  "abi": [
    {
      "inputs": [
        {
          "internalType": "uint256[]",
          "name": "_amounts",
          "type": "uint256[]"
        },
        {
          "internalType": "uint256[]",
          "name": "_sums",
          "type": "uint256[]"
        },
        {
          "internalType": "uint256[20]",
          "name": "_finalGameSums",
          "type": "uint256[20]"
        },
        {
          "internalType": "address",
          "name": "_priceFeed",
          "type": "address"
        },
        {
          "internalType": "address",
          "name": "_ticketNft",
          "type": "address"
        }
      ],
      "stateMutability": "nonpayable",
      "type": "constructor"
    },
    {
      "anonymous": false,
      "inputs": [
        {
          "indexed": true,
          "internalType": "address",
          "name": "previousOwner",
          "type": "address"
        },
        {
          "indexed": true,
          "internalType": "address",
          "name": "newOwner",
          "type": "address"
        }
      ],
      "name": "OwnershipTransferred",
      "type": "event"
    },
    {
      "anonymous": false,
      "inputs": [
        {
          "indexed": true,
          "internalType": "address",
          "name": "player",
          "type": "address"
        },
        {
          "indexed": true,
          "internalType": "uint256",
          "name": "sum",
          "type": "uint256"
        },
        {
          "indexed": true,
          "internalType": "uint256",
          "name": "tokenId",
          "type": "uint256"
        }
      ],
      "name": "WinnerChosen",
      "type": "event"
    },
    {
      "inputs": [],
      "name": "enterRaffle",
      "outputs": [],
      "stateMutability": "payable",
      "type": "function"
    },
    {
      "inputs": [],
      "name": "entranceFee",
      "outputs": [
        {
          "internalType": "uint256",
          "name": "",
          "type": "uint256"
        }
      ],
      "stateMutability": "view",
      "type": "function"
    },
    {
      "inputs": [],
      "name": "finalGame",
      "outputs": [],
      "stateMutability": "nonpayable",
      "type": "function"
    },
    {
      "inputs": [],
      "name": "getFinalGameSums",
      "outputs": [
        {
          "internalType": "uint256[20]",
          "name": "",
          "type": "uint256[20]"
        }
      ],
      "stateMutability": "view",
      "type": "function"
    },
    {
      "inputs": [],
      "name": "getTicketsLeft",
      "outputs": [
        {
          "internalType": "uint256[]",
          "name": "",
          "type": "uint256[]"
        }
      ],
      "stateMutability": "view",
      "type": "function"
    },
    {
      "inputs": [
        {
          "internalType": "uint256",
          "name": "sum",
          "type": "uint256"
        }
      ],
      "name": "getTicketsLeftBySum",
      "outputs": [
        {
          "internalType": "uint256",
          "name": "",
          "type": "uint256"
        }
      ],
      "stateMutability": "view",
      "type": "function"
    },
    {
      "inputs": [],
      "name": "getTopPlayers",
      "outputs": [
        {
          "internalType": "address[20]",
          "name": "",
          "type": "address[20]"
        }
      ],
      "stateMutability": "view",
      "type": "function"
    },
    {
      "inputs": [],
      "name": "isOpen",
      "outputs": [
        {
          "internalType": "bool",
          "name": "",
          "type": "bool"
        }
      ],
      "stateMutability": "view",
      "type": "function"
    },
    {
      "inputs": [],
      "name": "openRaffle",
      "outputs": [],
      "stateMutability": "nonpayable",
      "type": "function"
    },
    {
      "inputs": [],
      "name": "owner",
      "outputs": [
        {
          "internalType": "address",
          "name": "",
          "type": "address"
        }
      ],
      "stateMutability": "view",
      "type": "function"
    },
    {
      "inputs": [
        {
          "internalType": "address",
          "name": "target",
          "type": "address"
        },
        {
          "internalType": "uint256",
          "name": "amountInUsdt",
          "type": "uint256"
        }
      ],
      "name": "pay",
      "outputs": [],
      "stateMutability": "nonpayable",
      "type": "function"
    },
    {
      "inputs": [],
      "name": "renounceOwnership",
      "outputs": [],
      "stateMutability": "nonpayable",
      "type": "function"
    },
    {
      "inputs": [
        {
          "internalType": "uint256",
          "name": "newEntranceFee",
          "type": "uint256"
        }
      ],
      "name": "setEntranceFee",
      "outputs": [],
      "stateMutability": "nonpayable",
      "type": "function"
    },
    {
      "inputs": [],
      "name": "stopRaffle",
      "outputs": [],
      "stateMutability": "nonpayable",
      "type": "function"
    },
    {
      "inputs": [
        {
          "internalType": "uint256",
          "name": "",
          "type": "uint256"
        }
      ],
      "name": "sums",
      "outputs": [
        {
          "internalType": "uint256",
          "name": "",
          "type": "uint256"
        }
      ],
      "stateMutability": "view",
      "type": "function"
    },
    {
      "inputs": [],
      "name": "ticketNft",
      "outputs": [
        {
          "internalType": "contract Ticket",
          "name": "",
          "type": "address"
        }
      ],
      "stateMutability": "view",
      "type": "function"
    },
    {
      "inputs": [],
      "name": "ticketsLeft",
      "outputs": [
        {
          "internalType": "uint256",
          "name": "",
          "type": "uint256"
        }
      ],
      "stateMutability": "view",
      "type": "function"
    },
    {
      "inputs": [
        {
          "internalType": "address",
          "name": "newOwner",
          "type": "address"
        }
      ],
      "name": "transferOwnership",
      "outputs": [],
      "stateMutability": "nonpayable",
      "type": "function"
    },
    {
      "stateMutability": "payable",
      "type": "receive"
    }
  ],
  "bytecode": "0x608060405260405180602001604052806000815250600190816200002491906200061d565b5066d19c2ff9bf80006003553480156200003d57600080fd5b5060405162002879380380620028798339818101604052810190620000639190620009b8565b62000083620000776200022160201b60201c565b6200022960201b60201c565b835185511480156200009757506000855114155b620000d9576040517f08c379a0000000000000000000000000000000000000000000000000000000008152600401620000d09062000ae2565b60405180910390fd5b81601d60006101000a81548173ffffffffffffffffffffffffffffffffffffffff021916908373ffffffffffffffffffffffffffffffffffffffff160217905550836006908051906020019062000132929190620002ed565b50826007906014620001469291906200033f565b506000855190508067ffffffffffffffff8111156200016a5762000169620003ae565b5b604051908082528060200260200182016040528015620001995781602001602082028036833780820191505090505b5060059080519060200190620001b1929190620002ed565b508560059080519060200190620001ca929190620002ed565b50612a8860048190555081600260006101000a81548173ffffffffffffffffffffffffffffffffffffffff021916908373ffffffffffffffffffffffffffffffffffffffff16021790555050505050505062000b04565b600033905090565b60008060009054906101000a900473ffffffffffffffffffffffffffffffffffffffff169050816000806101000a81548173ffffffffffffffffffffffffffffffffffffffff021916908373ffffffffffffffffffffffffffffffffffffffff1602179055508173ffffffffffffffffffffffffffffffffffffffff168173ffffffffffffffffffffffffffffffffffffffff167f8be0079c531659141344cd1fd0a4f28419497f9722a3daafe3b4186f6b6457e060405160405180910390a35050565b8280548282559060005260206000209081019282156200032c579160200282015b828111156200032b5782518255916020019190600101906200030e565b5b5090506200033b919062000384565b5090565b826014810192821562000371579160200282015b828111156200037057825182559160200191906001019062000353565b5b50905062000380919062000384565b5090565b5b808211156200039f57600081600090555060010162000385565b5090565b600081519050919050565b7f4e487b7100000000000000000000000000000000000000000000000000000000600052604160045260246000fd5b7f4e487b7100000000000000000000000000000000000000000000000000000000600052602260045260246000fd5b600060028204905060018216806200042557607f821691505b6020821081036200043b576200043a620003dd565b5b50919050565b60008190508160005260206000209050919050565b60006020601f8301049050919050565b600082821b905092915050565b600060088302620004a57fffffffffffffffffffffffffffffffffffffffffffffffffffffffffffffffff8262000466565b620004b1868362000466565b95508019841693508086168417925050509392505050565b6000819050919050565b6000819050919050565b6000620004fe620004f8620004f284620004c9565b620004d3565b620004c9565b9050919050565b6000819050919050565b6200051a83620004dd565b62000532620005298262000505565b84845462000473565b825550505050565b600090565b620005496200053a565b620005568184846200050f565b505050565b5b818110156200057e57620005726000826200053f565b6001810190506200055c565b5050565b601f821115620005cd57620005978162000441565b620005a28462000456565b81016020851015620005b2578190505b620005ca620005c18562000456565b8301826200055b565b50505b505050565b600082821c905092915050565b6000620005f260001984600802620005d2565b1980831691505092915050565b60006200060d8383620005df565b9150826002028217905092915050565b6200062882620003a3565b67ffffffffffffffff811115620006445762000643620003ae565b5b6200065082546200040c565b6200065d82828562000582565b600060209050601f83116001811462000695576000841562000680578287015190505b6200068c8582620005ff565b865550620006fc565b601f198416620006a58662000441565b60005b82811015620006cf57848901518255600182019150602085019450602081019050620006a8565b86831015620006ef5784890151620006eb601f891682620005df565b8355505b6001600288020188555050505b505050505050565b6000604051905090565b600080fd5b600080fd5b600080fd5b6000601f19601f8301169050919050565b62000739826200071d565b810181811067ffffffffffffffff821117156200075b576200075a620003ae565b5b80604052505050565b60006200077062000704565b90506200077e82826200072e565b919050565b600067ffffffffffffffff821115620007a157620007a0620003ae565b5b602082029050602081019050919050565b600080fd5b620007c281620004c9565b8114620007ce57600080fd5b50565b600081519050620007e281620007b7565b92915050565b6000620007ff620007f98462000783565b62000764565b90508083825260208201905060208402830185811115620008255762000824620007b2565b5b835b818110156200085257806200083d8882620007d1565b84526020840193505060208101905062000827565b5050509392505050565b600082601f83011262000874576200087362000718565b5b815162000886848260208601620007e8565b91505092915050565b600067ffffffffffffffff821115620008ad57620008ac620003ae565b5b602082029050919050565b6000620008cf620008c9846200088f565b62000764565b90508060208402830185811115620008ec57620008eb620007b2565b5b835b81811015620009195780620009048882620007d1565b845260208401935050602081019050620008ee565b5050509392505050565b600082601f8301126200093b576200093a62000718565b5b60146200094a848285620008b8565b91505092915050565b600073ffffffffffffffffffffffffffffffffffffffff82169050919050565b6000620009808262000953565b9050919050565b620009928162000973565b81146200099e57600080fd5b50565b600081519050620009b28162000987565b92915050565b60008060008060006103008688031215620009d857620009d76200070e565b5b600086015167ffffffffffffffff811115620009f957620009f862000713565b5b62000a07888289016200085c565b955050602086015167ffffffffffffffff81111562000a2b5762000a2a62000713565b5b62000a39888289016200085c565b945050604062000a4c8882890162000923565b9350506102c062000a6088828901620009a1565b9250506102e062000a7488828901620009a1565b9150509295509295909350565b600082825260208201905092915050565b7f526166666c65496d706c3a20696e76616c696420617267756d656e7473000000600082015250565b600062000aca601d8362000a81565b915062000ad78262000a92565b602082019050919050565b6000602082019050818103600083015262000afd8162000abb565b9050919050565b611d658062000b146000396000f3fe60806040526004361061010d5760003560e01c8063779a515711610095578063b4ba7d3611610064578063b4ba7d361461030f578063c407687614610326578063e09b2a621461034f578063f2fde38b1461037a578063fe56f5a0146103a357610114565b8063779a5157146102775780637dae059a146102a257806388e814e6146102b95780638da5cb5b146102e457610114565b8063646f22c5116100dc578063646f22c5146101a2578063649677e1146101cd578063694c49be146101f85780636cab5e5b14610235578063715018a61461026057610114565b80631f564a45146101195780632cfcc53914610156578063328169ad1461016057806347535d7b1461017757610114565b3661011457005b600080fd5b34801561012557600080fd5b50610140600480360381019061013b91906110a9565b6103cc565b60405161014d91906110e5565b60405180910390f35b61015e6103f0565b005b34801561016c57600080fd5b5061017561067e565b005b34801561018357600080fd5b5061018c610811565b604051610199919061111b565b60405180910390f35b3480156101ae57600080fd5b506101b7610824565b6040516101c491906111f4565b60405180910390f35b3480156101d957600080fd5b506101e261087c565b6040516101ef91906110e5565b60405180910390f35b34801561020457600080fd5b5061021f600480360381019061021a91906110a9565b610882565b60405161022c91906110e5565b60405180910390f35b34801561024157600080fd5b5061024a610901565b60405161025791906110e5565b60405180910390f35b34801561026c57600080fd5b50610275610907565b005b34801561028357600080fd5b5061028c61091b565b604051610299919061129a565b60405180910390f35b3480156102ae57600080fd5b506102b7610966565b005b3480156102c557600080fd5b506102ce61098b565b6040516102db9190611393565b60405180910390f35b3480156102f057600080fd5b506102f9610a2a565b60405161030691906113be565b60405180910390f35b34801561031b57600080fd5b50610324610a53565b005b34801561033257600080fd5b5061034d60048036038101906103489190611405565b610a78565b005b34801561035b57600080fd5b50610364610bdc565b60405161037191906114a4565b60405180910390f35b34801561038657600080fd5b506103a1600480360381019061039c91906114bf565b610c02565b005b3480156103af57600080fd5b506103ca60048036038101906103c591906110a9565b610c85565b005b600681815481106103dc57600080fd5b906000526020600020016000915090505481565b601b60009054906101000a900460ff1661043f576040517f08c379a000000000000000000000000000000000000000000000000000000000815260040161043690611549565b60405180910390fd5b600354341015610484576040517f08c379a000000000000000000000000000000000000000000000000000000000815260040161047b906115b5565b60405180910390fd5b6000600454116104c9576040517f08c379a00000000000000000000000000000000000000000000000000000000081526004016104c090611621565b60405180910390fd5b601c600081546104d890611670565b91905081905550600033601c546001436104f291906116b8565b4060405160200161050593929190611705565b6040516020818303038152906040528051906020012060001c905060006004549050600060018284610537919061176b565b610541919061179c565b9050600061054e82610c97565b9050600060068281548110610566576105656117d0565b5b906000526020600020015490506000600260009054906101000a900473ffffffffffffffffffffffffffffffffffffffff1673ffffffffffffffffffffffffffffffffffffffff1663a144819433846040518363ffffffff1660e01b81526004016105d29291906117ff565b6020604051808303816000875af11580156105f1573d6000803e3d6000fd5b505050506040513d601f19601f82011682018060405250810190610615919061183d565b905060016004600082825461062a91906116b8565b9250508190555080823373ffffffffffffffffffffffffffffffffffffffff167f583f2b104ddadb04015734001b634e73a2cd12f3beccb23ad14d2df0ab279dcf60405160405180910390a4505050505050565b610686610d97565b600033601c5460014361069991906116b8565b406040516020016106ac93929190611705565b6040516020818303038152906040528051906020012060001c905060006106d282610e15565b905060005b601481101561080c57600073ffffffffffffffffffffffffffffffffffffffff1682826014811061070b5761070a6117d0565b5b602002015173ffffffffffffffffffffffffffffffffffffffff16146107f957600260009054906101000a900473ffffffffffffffffffffffffffffffffffffffff1673ffffffffffffffffffffffffffffffffffffffff1663a144819483836014811061077c5761077b6117d0565b5b602002015160078460148110610795576107946117d0565b5b01546040518363ffffffff1660e01b81526004016107b49291906117ff565b6020604051808303816000875af11580156107d3573d6000803e3d6000fd5b505050506040513d601f19601f820116820180604052508101906107f7919061183d565b505b808061080490611670565b9150506106d7565b505050565b601b60009054906101000a900460ff1681565b6060600580548060200260200160405190810160405280929190818152602001828054801561087257602002820191906000526020600020905b81548152602001906001019080831161085e575b5050505050905090565b60035481565b600080600090505b6006805490508110156108f65782600682815481106108ac576108ab6117d0565b5b9060005260206000200154036108e357600581815481106108d0576108cf6117d0565b5b90600052602060002001549150506108fc565b80806108ee90611670565b91505061088a565b50600090505b919050565b60045481565b61090f610d97565b6109196000610f52565b565b61092361101e565b600760148060200260405190810160405280929190826014801561095c576020028201915b815481526020019060010190808311610948575b5050505050905090565b61096e610d97565b6000601b60006101000a81548160ff021916908315150217905550565b610993611041565b600260009054906101000a900473ffffffffffffffffffffffffffffffffffffffff1673ffffffffffffffffffffffffffffffffffffffff166388e814e66040518163ffffffff1660e01b815260040161028060405180830381865afa158015610a01573d6000803e3d6000fd5b505050506040513d601f19601f82011682018060405250810190610a2591906119c6565b905090565b60008060009054906101000a900473ffffffffffffffffffffffffffffffffffffffff16905090565b610a5b610d97565b6001601b60006101000a81548160ff021916908315150217905550565b610a80610d97565b6000601d60009054906101000a900473ffffffffffffffffffffffffffffffffffffffff1673ffffffffffffffffffffffffffffffffffffffff1663feaf968c6040518163ffffffff1660e01b815260040160a060405180830381865afa158015610aef573d6000803e3d6000fd5b505050506040513d601f19601f82011682018060405250810190610b139190611a6c565b50505091505060008183610b279190611ae7565b905060008473ffffffffffffffffffffffffffffffffffffffff1682604051610b4f90611b5a565b60006040518083038185875af1925050503d8060008114610b8c576040519150601f19603f3d011682016040523d82523d6000602084013e610b91565b606091505b5050905080610bd5576040517f08c379a0000000000000000000000000000000000000000000000000000000008152600401610bcc90611bbb565b60405180910390fd5b5050505050565b600260009054906101000a900473ffffffffffffffffffffffffffffffffffffffff1681565b610c0a610d97565b600073ffffffffffffffffffffffffffffffffffffffff168173ffffffffffffffffffffffffffffffffffffffff1603610c79576040517f08c379a0000000000000000000000000000000000000000000000000000000008152600401610c7090611c4d565b60405180910390fd5b610c8281610f52565b50565b610c8d610d97565b8060038190555050565b60008060058054905090506000600182610cb191906116b8565b905060005b82811015610d8c57600060058281548110610cd457610cd36117d0565b5b90600052602060002001540315610d79578460058281548110610cfa57610cf96117d0565b5b90600052602060002001541015610d3c5760058181548110610d1f57610d1e6117d0565b5b906000526020600020015485610d3591906116b8565b9450610d78565b80915060058181548110610d5357610d526117d0565b5b906000526020600020016000815480929190610d6e90611c6d565b9190505550610d8c565b5b8080610d8490611670565b915050610cb6565b508092505050919050565b610d9f611016565b73ffffffffffffffffffffffffffffffffffffffff16610dbd610a2a565b73ffffffffffffffffffffffffffffffffffffffff1614610e13576040517f08c379a0000000000000000000000000000000000000000000000000000000008152600401610e0a90611ce2565b60405180910390fd5b565b610e1d611041565b6000601483610e2c919061176b565b905060005b60148114610f4b57600260009054906101000a900473ffffffffffffffffffffffffffffffffffffffff1673ffffffffffffffffffffffffffffffffffffffff1663ae3e4984826040518263ffffffff1660e01b8152600401610e9491906110e5565b602060405180830381865afa158015610eb1573d6000803e3d6000fd5b505050506040513d601f19601f82011682018060405250810190610ed59190611d02565b838360148110610ee857610ee76117d0565b5b602002019073ffffffffffffffffffffffffffffffffffffffff16908173ffffffffffffffffffffffffffffffffffffffff16815250506014600183610f2e919061179c565b610f38919061176b565b915080610f4490611670565b9050610e31565b5050919050565b60008060009054906101000a900473ffffffffffffffffffffffffffffffffffffffff169050816000806101000a81548173ffffffffffffffffffffffffffffffffffffffff021916908373ffffffffffffffffffffffffffffffffffffffff1602179055508173ffffffffffffffffffffffffffffffffffffffff168173ffffffffffffffffffffffffffffffffffffffff167f8be0079c531659141344cd1fd0a4f28419497f9722a3daafe3b4186f6b6457e060405160405180910390a35050565b600033905090565b604051806102800160405280601490602082028036833780820191505090505090565b604051806102800160405280601490602082028036833780820191505090505090565b6000604051905090565b600080fd5b6000819050919050565b61108681611073565b811461109157600080fd5b50565b6000813590506110a38161107d565b92915050565b6000602082840312156110bf576110be61106e565b5b60006110cd84828501611094565b91505092915050565b6110df81611073565b82525050565b60006020820190506110fa60008301846110d6565b92915050565b60008115159050919050565b61111581611100565b82525050565b6000602082019050611130600083018461110c565b92915050565b600081519050919050565b600082825260208201905092915050565b6000819050602082019050919050565b61116b81611073565b82525050565b600061117d8383611162565b60208301905092915050565b6000602082019050919050565b60006111a182611136565b6111ab8185611141565b93506111b683611152565b8060005b838110156111e75781516111ce8882611171565b97506111d983611189565b9250506001810190506111ba565b5085935050505092915050565b6000602082019050818103600083015261120e8184611196565b905092915050565b600060149050919050565b600081905092915050565b6000819050919050565b6000602082019050919050565b61124c81611216565b6112568184611221565b92506112618261122c565b8060005b838110156112925781516112798782611171565b965061128483611236565b925050600181019050611265565b505050505050565b6000610280820190506112b06000830184611243565b92915050565b600060149050919050565b600081905092915050565b6000819050919050565b600073ffffffffffffffffffffffffffffffffffffffff82169050919050565b6000611301826112d6565b9050919050565b611311816112f6565b82525050565b60006113238383611308565b60208301905092915050565b6000602082019050919050565b611345816112b6565b61134f81846112c1565b925061135a826112cc565b8060005b8381101561138b5781516113728782611317565b965061137d8361132f565b92505060018101905061135e565b505050505050565b6000610280820190506113a9600083018461133c565b92915050565b6113b8816112f6565b82525050565b60006020820190506113d360008301846113af565b92915050565b6113e2816112f6565b81146113ed57600080fd5b50565b6000813590506113ff816113d9565b92915050565b6000806040838503121561141c5761141b61106e565b5b600061142a858286016113f0565b925050602061143b85828601611094565b9150509250929050565b6000819050919050565b600061146a611465611460846112d6565b611445565b6112d6565b9050919050565b600061147c8261144f565b9050919050565b600061148e82611471565b9050919050565b61149e81611483565b82525050565b60006020820190506114b96000830184611495565b92915050565b6000602082840312156114d5576114d461106e565b5b60006114e3848285016113f0565b91505092915050565b600082825260208201905092915050565b7f526166666c65496d706c3a20726166666c6520697320636c6f73656400000000600082015250565b6000611533601c836114ec565b915061153e826114fd565b602082019050919050565b6000602082019050818103600083015261156281611526565b9050919050565b7f526166666c653a206e6f7420656e6f7567682065746865722073656e74000000600082015250565b600061159f601d836114ec565b91506115aa82611569565b602082019050919050565b600060208201905081810360008301526115ce81611592565b9050919050565b7f526166666c653a20416c6c20706f736974696f6e732061726520636c6f736564600082015250565b600061160b6020836114ec565b9150611616826115d5565b602082019050919050565b6000602082019050818103600083015261163a816115fe565b9050919050565b7f4e487b7100000000000000000000000000000000000000000000000000000000600052601160045260246000fd5b600061167b82611073565b91507fffffffffffffffffffffffffffffffffffffffffffffffffffffffffffffffff82036116ad576116ac611641565b5b600182019050919050565b60006116c382611073565b91506116ce83611073565b92508282039050818111156116e6576116e5611641565b5b92915050565b6000819050919050565b6116ff816116ec565b82525050565b600060608201905061171a60008301866113af565b61172760208301856110d6565b61173460408301846116f6565b949350505050565b7f4e487b7100000000000000000000000000000000000000000000000000000000600052601260045260246000fd5b600061177682611073565b915061178183611073565b9250826117915761179061173c565b5b828206905092915050565b60006117a782611073565b91506117b283611073565b92508282019050808211156117ca576117c9611641565b5b92915050565b7f4e487b7100000000000000000000000000000000000000000000000000000000600052603260045260246000fd5b600060408201905061181460008301856113af565b61182160208301846110d6565b9392505050565b6000815190506118378161107d565b92915050565b6000602082840312156118535761185261106e565b5b600061186184828501611828565b91505092915050565b600080fd5b6000601f19601f8301169050919050565b7f4e487b7100000000000000000000000000000000000000000000000000000000600052604160045260246000fd5b6118b88261186f565b810181811067ffffffffffffffff821117156118d7576118d6611880565b5b80604052505050565b60006118ea611064565b90506118f682826118af565b919050565b600067ffffffffffffffff82111561191657611915611880565b5b602082029050919050565b600080fd5b600081519050611935816113d9565b92915050565b600061194e611949846118fb565b6118e0565b9050806020840283018581111561196857611967611921565b5b835b81811015611991578061197d8882611926565b84526020840193505060208101905061196a565b5050509392505050565b600082601f8301126119b0576119af61186a565b5b60146119bd84828561193b565b91505092915050565b600061028082840312156119dd576119dc61106e565b5b60006119eb8482850161199b565b91505092915050565b600069ffffffffffffffffffff82169050919050565b611a13816119f4565b8114611a1e57600080fd5b50565b600081519050611a3081611a0a565b92915050565b6000819050919050565b611a4981611a36565b8114611a5457600080fd5b50565b600081519050611a6681611a40565b92915050565b600080600080600060a08688031215611a8857611a8761106e565b5b6000611a9688828901611a21565b9550506020611aa788828901611a57565b9450506040611ab888828901611828565b9350506060611ac988828901611828565b9250506080611ada88828901611a21565b9150509295509295909350565b6000611af282611073565b9150611afd83611073565b9250828202611b0b81611073565b91508282048414831517611b2257611b21611641565b5b5092915050565b600081905092915050565b50565b6000611b44600083611b29565b9150611b4f82611b34565b600082019050919050565b6000611b6582611b37565b9150819050919050565b7f526166666c65496d706c3a205472616e73666572206661696c65640000000000600082015250565b6000611ba5601b836114ec565b9150611bb082611b6f565b602082019050919050565b60006020820190508181036000830152611bd481611b98565b9050919050565b7f4f776e61626c653a206e6577206f776e657220697320746865207a65726f206160008201527f6464726573730000000000000000000000000000000000000000000000000000602082015250565b6000611c376026836114ec565b9150611c4282611bdb565b604082019050919050565b60006020820190508181036000830152611c6681611c2a565b9050919050565b6000611c7882611073565b915060008203611c8b57611c8a611641565b5b600182039050919050565b7f4f776e61626c653a2063616c6c6572206973206e6f7420746865206f776e6572600082015250565b6000611ccc6020836114ec565b9150611cd782611c96565b602082019050919050565b60006020820190508181036000830152611cfb81611cbf565b9050919050565b600060208284031215611d1857611d1761106e565b5b6000611d2684828501611926565b9150509291505056fea26469706673582212203cfd8ca0cbec35431047d54215d3439434dbf089527146536a97e20406b330ef64736f6c63430008110033",
  "linkReferences": {},
  "deployedLinkReferences": {}
}